:100000000C948B010C94B3010C94B3010C94202834
:100010000C9445280C946A280C94B3010C94B301F9
:100020000C94B3010C94B3010C94B3010C94B30180
:100030000C94B3010C94B3010C94B3010C94B30170
:100040000C94F8300C94B3010C9405340C943734B0
:100050000C94B3010C94B3010C94B3010C94B30150
:100060000C94B3010C94B301E62FF32FF72FFD2F5F
:1000700003301830213028302D30333033303330D6
:100080003330333033303330333033303330333058
:100090003330333033303330333033303330333048
:1000A0003330333033303330E62FEC2FF32FF72F4C
:1000B000FD2F033009300D301230084AD73B3BCEBC
:1000C000016E84BCBFFDC12F3D6C74319ABD568357
:1000D0003DDA3D00C77F11BED9E4BB4C3E916BAA0F
:1000E000AABE000000803F05A84CCDB2D44EB9385E
:1000F00036A9020C50B9918688083CA6AAAA2ABE45
:10010000000000803F002020202020002020202010
:100110002000443A0050726F6772616D6D696E67BE
:10012000204D6F646500434F4D504153533A0020BA
:1001300020202020202020202020202020202000DF
:1001400020202020202020202020202020202020AF
:100150000046656574004D65746572730050726F7A
:10016000746F6E005175616E74756D2F494F4E003E
:10017000517561726B2F455A2D44440054525300FF
:100180005175617361720054582F4D696E69003A60
:100190004D3A530020202020202020200049443ABE
:1001A00000202020202020202000467265713A0087
:1001B00020202020200047505320466D743A200014
:1001C000202000566F69636520506572696F643A3C
:1001D0000020202020202000556E6974733A2000F2
:1001E0002020202020202020202020200044657670
:1001F0003A00426F7468204D656E757300467265F3
:100200007175656E63792F4944005265636569763F
:10021000657220436F6E66696700202020202020D1
:10022000202020202020202020200052657365748B
:1002300020746F20537461727400526F636B657425
:1002400020475053204669780057616974696E678A
:1002500020666F7200475053204669782E2E2E007C
:10026000416371756972696E67204669782E2E2E1A
:10027000004C43442D47505320466F756E64005721
:10028000616974696E6720666F7220545253002052
:10029000416C743A004750533A005374617475735B
:1002A0003A00566572200045676766696E6465723C
:1002B000204C434400000000080002010000030439
:1002C00007000000000000000001020408102040A8
:1002D0008001020408102001020408102004040414
:1002E00004040404040202020202020303030303DF
:1002F0000300000000230026002900000000002564
:100300000028002B0000000000240027002A000025
:1003100076116734B31111241FBECFEFD8E0DEBFD2
:10032000CDBF12E0A0E0B1E0ECE5FCE702C0059033
:100330000D92AE34B107D9F725E0AEE4B2E001C0CA
:100340001D92A43FB207E1F713E0C4E1D3E004C07B
:100350002297FE010E94363BC031D107C9F70E94A7
:10036000AB340C94213E0C9400000C94D43D0C94BE
:10037000DC3DDC01ED91FC910190F081E02D0994D0
:10038000EF92FF920F931F93CF93DF937C0101E0D5
:1003900010E00E151F05BCF4C4E0D0E061E08BE076
:1003A0000E9461328DE790E00E94993160E08BE01D
:1003B0000E9461328DE790E00E949931219771F798
:1003C0000F5F1F4FE6CFDF91CF911F910F91FF90ED
:1003D000EF900895CF93DF9380E00E94E23164EFC5
:1003E00071E080E090E00E94713180E00E94E23193
:1003F000EC0164EF71E080E090E00E947131BE0199
:10040000882777FD8095982F0E94DE382FE73AE6FF
:100410004CE35CE30E94F7396093D7037093D803F1
:100420008093D9039093DA03DF91CF9108951F93BE
:10043000CF93DF93EC01162F672F0E94B701612F36
:10044000CE010196DF91CF911F910C94B701CF920D
:10045000DF92EF92FF92CF93DF93EC016A017B0171
:10046000672F772788279927CE010E94B7016E2D25
:10047000CE0101960E94B7016D2DCE0102960E9419
:10048000B7016C2DCE010396DF91CF91FF90EF90D5
:10049000DF90CF900C94B7011F93CF93DF93EC01C3
:1004A0000E94B501182FCE0101960E94B501212F9F
:1004B00030E0322F2227A901480F511DCA01DF91D8
:1004C000CF911F910895CF93DF9360E08AE00E945F
:1004D000283261E08BE00E94283261E082E00E94D5
:1004E000283261E083E00E94283261E082E00E94CD
:1004F000613260E083E00E94613283E00E94DF317C
:1005000080E280932D0480932E0480932F04109218
:1005100022041092210410922404109223041092B9
:100520002604109225041092280410922704109299
:100530002A041092290410922C0410922B04109279
:1005400018041092170410921A04109219041092B1
:100550001C0410921B0410921E0410921D04109291
:10056000200410921F04109222041092210426E00D
:1005700040E855E260E070E083E595E00E94A33337
:1005800060E875E28EE492E00E94C62620E042E038
:1005900060E18FEB93E00E94592982E090E00E9495
:1005A000B5018D3419F4809333030AC08634D9F32E
:1005B00086E48093330366E482E090E00E94B70112
:1005C00084E090E00E94B501843419F480933203F2
:1005D0000CC08D34D9F38335C9F384E4809332039E
:1005E00064E484E090E00E94B70180E290E00E9421
:1005F0004C029C01225031092930310528F4909396
:100600004603809345030CC084E090E0909346033A
:100610008093450364E070E080E290E00E9417025E
:100620008CE190E00E94B501863018F48093250398
:1006300007C01092250360E08CE190E00E94B701B2
:1006400086E090E00E944C02EC019093310380938D
:10065000300388E090E00E944C0290932F03809337
:100660002E0327E833E030932D0320932C032DE94C
:1006700033E030932B0320932A0323E933E03093B4
:100680002903209328031092270310922603C758AA
:10069000D340679720F030933103209330030897BD
:1006A00020F010922F0310922E03DF91CF91089526
:1006B000CF92DF92EF92FF920F931F93CF937C0123
:1006C0000E94B501C82FC70101960E94B501C82E2E
:1006D000C70102960E94B501082FC70103960E9428
:1006E000B5014C2F50E060E070E0742F662755276D
:1006F0004427D12CE12CF12C7601DD24CC244C0DA7
:100700005D1D6E1D7F1D10E020E030E0322F212F97
:10071000102F0027400F511F621F731F480F511DDC
:10072000611D711DCB01BA01CF911F910F91FF90F7
:10073000EF90DF90CF900895CF93C82F67E871E0D6
:100740008FEB93E00E942B35CD3439F46DE771E0E7
:100750008FEB93E0CF910C942B35C33539F46FE8D0
:1007600071E08FEB93E0CF910C94F834CF91089522
:10077000CF93DF93EC01009719F467E871E005C0AF
:100780008130910539F460E871E08FEB93E00E94CD
:10079000F83412C08230910519F46CE771E010C092
:1007A0008330910519F460E771E00AC08430910547
:1007B00019F464E671E004C0259741F46DE571E039
:1007C0008FEB93E0DF91CF910C94F834DF91CF91D0
:1007D00008958D3419F466E571E004C0863431F46F
:1007E00061E571E08FEB93E00C94F83408954AE0F2
:1007F00050E0BC018FEB93E00C94D7358CE090E097
:100800000E9458030E94DE3820E030E543EC57E4B4
:100810000E9443386093F7047093F8048093F904BE
:100820009093FA0480E190E00E9458030E94DE3821
:1008300020E030E543EC57E40E9443386093F30432
:100840007093F4048093F5049093F60484E190E0AF
:100850000E9458030E94DE3820E030E543EC57E464
:100860000E9443386093FF03709300048093010457
:100870009093020488E190E00E9458030E94DE38C1
:1008800020E030E543EC57E40E9443386093FB03DB
:100890007093FC038093FD039093FE030895AF9241
:1008A000BF92CF92DF92EF92FF920F931F93A0908F
:1008B000F304B090F404C090F504D090F604E090F6
:1008C000F704F090F8040091F9041091FA042091D3
:1008D000FB033091FC034091FD035091FE036091B6
:1008E000FF037091000480910104909102040E9422
:1008F000012C21EA38EF41E550E40E94F73960937A
:10090000DB037093DC038093DD039093DE03A09000
:10091000F304B090F404C090F504D090F604E09095
:10092000F704F090F8040091F9041091FA04209172
:10093000FB033091FC034091FD035091FE03609155
:10094000FF037091000480910104909102040E94C1
:10095000E82C6093DF037093E0038093E1039093AE
:10096000E2031F910F91FF90EF90DF90CF90BF9027
:10097000AF9008954F925F926F927F928F929F9265
:10098000AF92BF92CF92DF92EF92FF92CF93DF931D
:1009900000D000D0CDB7DEB78090F7049090F80477
:1009A000A090F904B090FA04C501B4010E94AB38DC
:1009B00069837A838B839C8329813A813093CA042B
:1009C0002093C904C090F304D090F404E090F5049F
:1009D000F090F604C701B6010E94AB382B013C0130
:1009E0007093C8046093C704E981FA81BF01882726
:1009F00077FD8095982F0E94DE389B01AC01C501E0
:100A0000B4010E94753720E030E040E752E40E94D4
:100A1000F7394B015C0120E030E0A9010E94EC397C
:100A2000181624F0B7FAB094B7F8B0948092BB04CB
:100A30009092BC04A092BD04B092BE04B20188277B
:100A400077FD8095982F0E94DE389B01AC01C7018D
:100A5000B6010E94753720E030E040E752E40E9482
:100A6000F7396B017C0120E030E0A9010E94EC39EC
:100A7000181624F0F7FAF094F7F8F094C092B7043F
:100A8000D092B804E092B904F092BA04C501B4015E
:100A90000E94AB3869837A838B839C8329813A8156
:100AA0003093C6042093C504C701B6010E94AB3839
:100AB0002B013C017093C4046093C304E981FA8163
:100AC000BF01882777FD8095982F0E94DE389B0113
:100AD000AC01C501B4010E94753720E030E040E769
:100AE00052E40E94F7394B015C016093B3047093A8
:100AF000B4048093B5049093B604B201882777FDBF
:100B00008095982F0E94DE389B01AC01C701B60189
:100B10000E94753720E030E040E752E40E94F73948
:100B20006B017C016093AF047093B0048093B104B7
:100B30009093B204C501B4010E94AB387093C20413
:100B40006093C104C701B6010E94AB387093C00422
:100B50006093BF0480913203843409F04FC040E0B9
:100B600060E08FEB93E00E943F294091F7045091A1
:100B7000F8046091F9047091FA0425E030E08FEBFD
:100B800093E00E94D7368091C9049091CA0497FDE2
:100B900006C065EA71E08FEB93E00E942B3541E0DF
:100BA00060E08FEB93E00E943F294091F304509165
:100BB000F4046091F5047091F60425E030E08FEBC9
:100BC00093E00E94D7368091C7049091C80497FDA6
:100BD00006C065EA71E08FEB93E00E942B358091AF
:100BE000C7049091C8048D599F4F873C910530F4FC
:100BF00065EA71E08FEB93E00E942B358091320320
:100C00008D3409F06FC040E060E08FEB93E00E940C
:100C10003F296091C9047091CA044AE050E08FEB0B
:100C200093E00E94D7356DEB71E08FEB93E00E946B
:100C30002B354091BB045091BC046091BD04709170
:100C4000BE0422E030E08FEB93E00E94D736809123
:100C5000C9049091CA0497FD06C065EA71E08FEB64
:100C600093E00E942B3541E060E08FEB93E00E941F
:100C70003F296091C7047091C8044AE050E08FEBAF
:100C800093E00E94D7356DEB71E08FEB93E00E940B
:100C90002B354091B7045091B8046091B90470911C
:100CA000BA0422E030E08FEB93E00E94D7368091C7
:100CB000C7049091C80497FD06C065EA71E08FEB08
:100CC00093E00E942B358091C7049091C8048D5900
:100CD0009F4F873C910530F465EA71E08FEB93E01C
:100CE0000E942B3580913203833509F099C040E092
:100CF00060E08FEB93E00E943F296091C9047091FE
:100D0000CA044AE050E08FEB93E00E94D7356DEBC8
:100D100071E08FEB93E00E942B356091C5047091D8
:100D2000C6044AE050E08FEB93E00E94D7356DEBAC
:100D300071E08FEB93E00E942B356091C1047091BC
:100D4000C2044AE050E08FEB93E00E94D7358091D7
:100D5000C9049091CA0497FD06C065EA71E08FEB63
:100D600093E00E942B3541E060E08FEB93E00E941E
:100D70003F296091C7047091C8044AE050E08FEBAE
:100D800093E00E94D7356DEB71E08FEB93E00E940A
:100D90002B356091C3047091C4044AE050E08FEB9E
:100DA00093E00E94D7356DEB71E08FEB93E00E94EA
:100DB0002B356091BF047091C0044AE050E08FEB86
:100DC00093E00E94D7358091C7049091C80497FDA5
:100DD00006C065EA71E08FEB93E00E942B358091AD
:100DE000C7049091C8048D599F4F873C9105C0F46A
:100DF00065EA71E08FEB93E00F900F900F900F90EA
:100E0000DF91CF91FF90EF90DF90CF90BF90AF90A8
:100E10009F908F907F906F905F904F900C942B35A8
:100E20000F900F900F900F90DF91CF91FF90EF9068
:100E3000DF90CF90BF90AF909F908F907F906F90FA
:100E40005F904F900895CF92DF92EF92FF921092B1
:100E50008804109287040E9442316B017C0188E86B
:100E6000C80E83E1D81EE11CF11C8EE492E00E94C2
:100E70009327892B69F08EE492E00E945D258432ED
:100E800039F481E090E090938804809387040DC04A
:100E90008091870490918804892B39F40E94423113
:100EA0006C157D058E059F0500F3FF90EF90DF9098
:100EB000CF900895CF93DF938091300490913104C7
:100EC000069721F5E4E3F4E0AEE8B3E081918D9379
:100ED00084E0EA33F807D1F780913604803319F4BF
:100EE00080E28093900380912503833019F440E0E1
:100EF0006BE002C041E061E08FEB93E00E943F298C
:100F000080919D0390919E03019739F010923104D6
:100F100010923004DF91CF910895CFE8D3E069912A
:100F20008FEB93E00E942D3583E0C439D807B9F7E1
:100F3000EDCFCF93DF9380913004909131040597EA
:100F4000B9F4E4E3F4E0A6E8B3E081918D9384E0A2
:100F5000E933F807D1F780913604803319F480E241
:100F60008093880380919D0390919E03019739F0AF
:100F70001092310410923004DF91CF91089540E037
:100F800067E08FEB93E00E943F29C7E8D3E06991C7
:100F90008FEB93E00E942D3583E0CC38D807B9F76A
:100FA000E7CFCF93DF938091300490913104059780
:100FB00071F5E4E3F4E0A6E7B3E081918D9384E07A
:100FC000EA33F807D1F780913504803379F480E271
:100FD0008093770390913604903341F480937803A3
:100FE00090913704903311F48093790340E06CE0E2
:100FF0008FEB93E00E943F29C7E7D3E069918FEB25
:1010000093E00E942D3583E0CB37D807B9F71092D3
:10101000310410923004DF91CF9108958091300413
:1010200090913104029729F010923104109230040B
:10103000089560E48EE492E00E942D3560913504BD
:101040008EE492E00E942D356EE38EE492E00E94E1
:101050002D3580913504803331F460E871E087E408
:1010600093E00E945D3780913504813331F463E869
:1010700071E087E493E00E945D378091350482330C
:1010800031F466E871E087E493E00E945D37809177
:101090003504843331F469E871E087E493E00E9419
:1010A0005D3780913504853331F46CE871E087E475
:1010B00093E00E945D3780913504863331F46FE808
:1010C00071E087E493E00E945D37809135048733B7
:1010D00031F462E971E087E493E00E945D3780912A
:1010E0003504883331F465E971E087E493E00E94C8
:1010F0005D3780913504893331F468E971E087E424
:1011000093E00E945D3780919D0390919E0301972B
:1011100061F441E067E08FEB93E00E943F2967E4D0
:1011200073E08FEB93E00C941D35089580913004AB
:1011300090913104059709F03FC080913504809368
:101140004F0380913604809350039091370490931D
:1011500051039091380490935203803319F480E244
:101160008093500380919D0390919E03029721F5F7
:1011700041E06BE08FEB93E00E943F2960914F03C9
:101180008FEB93E00E942D35609150038FEB93E03D
:101190000E942D35609151038FEB93E00E942D3515
:1011A0006BE971E08FEB93E00E942B356091520365
:1011B0008FEB93E00E942D35109231041092300491
:1011C000089580913004909131040497C9F580917D
:1011D0003404809356038091350480935703909193
:1011E00036049093580390913704909359038033B9
:1011F00019F480E28093570380919D0390919E03A0
:101200000297F1F441E067E08FEB93E00E943F2901
:10121000609157038FEB93E00E942D356091580346
:101220008FEB93E00E942D356BE971E08FEB93E03B
:101230000E942B35609159038FEB93E00E942D356E
:1012400010923104109230040895CF93DF9380916F
:10125000300490913104059709F03FC0E4E3F4E0D5
:10126000A6E6B3E081918D9384E0EA33F807D1F7E5
:1012700080913504803319F480E280936703809174
:101280009D0390919E03029729F08091250383305E
:1012900021F512C041E062E08FEB93E00E943F290C
:1012A000C7E6D3E069918FEB93E00E942D3583E090
:1012B000CB36D807B9F7E9CF41E06CE08FEB93E08C
:1012C0000E943F29C7E6D3E069918FEB93E00E942B
:1012D0002D3583E0CB36D807B9F710923104109240
:1012E0003004DF91CF910895CF93DF938091300444
:1012F00090913104049729F0109231041092300437
:101300002EC0E4E3F4E0AEE5B3E081918D9384E098
:10131000E933F807D1F780913504803349F480E24E
:1013200080935F0390913604903311F480936003AF
:1013300080919D0390919E03029789F440E068E0BC
:101340008FEB93E00E943F29CFE5D3E069918FEBCB
:1013500093E00E942D3583E0C236D807B9F7DF91BC
:10136000CF9108950F931F93CF93DF938091300413
:1013700090913104079749F0109231041092300493
:10138000DF91CF911F910F910895C5E3D4E011E350
:1013900000E28881803311F408831DC09FEB980F11
:1013A000963010F4188317C081538630A0F480ED76
:1013B000810F88836DE971E08EE492E00E942B3505
:1013C000612F8EE492E00E942D3569EC71E08EE48D
:1013D00092E00E942B3561E070E080E090E00E9496
:1013E000713121961F5F1733A1F6E4E3F4E0AEE715
:1013F000B3E081918D9384E0EB33F807D1F78091CE
:101400009D0390919E03019731F0DF91CF911F9141
:101410000F910C94F73041E06AE08FEB93E00E946B
:101420003F29CFE7D3E069918FEB93E00E942D3500
:1014300083E0C538D807B9F7E8CF61E070E080E015
:1014400090E00C9471314F925F926F927F928F92E5
:101450009F92AF92BF92CF92DF92EF92FF926B0179
:101460007C0110923C0310923B0380EAC81686E888
:10147000D80681E0E806F10434F4F7FE0BC0C12C75
:10148000D12C760107C0FFE9CF2EF6E8DF2EEE243F
:10149000E394F12CC701B60120E137E240E050E0CF
:1014A0000E94153B30933E0320933D03A0EFB8ED1F
:1014B0000E94663B2B013C014C0C5D1C6E1C7F1C8A
:1014C000C301B20128EE33E040E050E00E94153B3A
:1014D0003093400320933F03A8E1BCEF0E94663B9A
:1014E0004B015C01840C951CA61CB71CC501B40102
:1014F00024E630E040E050E00E94153B3093420388
:1015000020934103ACE9BFEF0E94663B6B017C0175
:10151000C80CD91CEA1CFB1CC701B6012AE030E04C
:1015200040E050E00E94153B309344032093430376
:10153000A6EFBFEF0E943A3B6C0D7D1D8E1D9F1DD7
:101540007093460360934503FF90EF90DF90CF9038
:10155000BF90AF909F908F907F906F905F904F90D3
:1015600008956FE971E08EE492E00E942B3560915E
:1015700033038EE492E00E942D3569EC71E08EE435
:1015800092E00C942B358FEB93E00E94382965E1B3
:1015900071E08FEB93E00E94F83441E060E08FEB64
:1015A00093E00C943F29CF93DF9381E090E09093F8
:1015B0002403809323030E94C30AC1E0D0E041E0EA
:1015C00060E08FEB93E00E943F296AE172E08FEBCD
:1015D00093E00E94F83441E060E08FEB93E00E94DA
:1015E0003F298091230390912403019731F46AE00D
:1015F00072E08FEB93E00E94F83480912303909186
:101600002403029731F46DEF71E08FEB93E00E94B9
:10161000F8348091230390912403039731F462EF0F
:1016200071E08FEB93E00E94F8348AE00E949732D9
:10163000892BD9F310921203109211038AE00E94B1
:101640009732019781F464E670E080E090E00E94B8
:1016500071318091110390911203019690931203BE
:1016600080931103EBCF8091110390911203449763
:10167000ACF488EC90E00E94C0018091230390912B
:1016800024030196909324038093230304970CF47E
:1016900096CFD0932403C093230391CF88EE93E099
:1016A000DF91CF910C94C001CF930E94C30A6DEEDD
:1016B00071E08FEB93E00E94F834C091250341E084
:1016C00064E08FEB93E00E943F2960EE71E08FEBC6
:1016D00093E00E94F83441E064E08FEB93E00E94D5
:1016E0003F298C2F90E00E94B8038AE00E94973235
:1016F000892BD9F310921203109211038AE00E94F1
:101700009732019781F464E670E080E090E00E94F7
:1017100071318091110390911203019690931203FD
:1017200080931103EBCF80911103909112034497A2
:1017300054F488EC90E00E94C001CF5FC63008F4FA
:10174000BECFC0E0BCCF88EE93E00E94C001C09342
:1017500025036C2F8CE190E0CF910C94B7011F937F
:10176000CF93DF930E94C30A68ED71E08FEB93E0A3
:101770000E94F834DDE4C6E41091330341E067E0F1
:101780008FEB93E00E943F2961ED71E08FEB93E0D6
:101790000E94F83441E067E08FEB93E00E943F291C
:1017A000809133030E94E9038AE00E949732892BDB
:1017B000D9F310921203109211038AE00E9497321B
:1017C000019781F464E670E080E090E00E9471315E
:1017D00080911103909112030196909312038093CC
:1017E0001103EBCF8091110390911203449754F4AD
:1017F00088EC90E00E94C001163409F07BC0D093C1
:101800003303BACF88EE93E00E94C00160913303A6
:1018100082E090E00E94B7010E94C30A63EC71E08D
:101820008FEB93E00E94F834C2E0D0E041E06DE03D
:101830008FEB93E00E943F2960EC71E08FEB93E027
:101840000E94F83441E06DE08FEB93E00E943F2965
:1018500060914503709146034AE050E08FEB93E0BE
:101860000E94D7358AE00E949732892BD9F31092D3
:101870001203109211038AE00E949732019781F4BB
:1018800064E670E080E090E00E9471318091110385
:101890009091120301969093120380931103EBCF62
:1018A00080911103909112034497ACF488EC90E07E
:1018B0000E94C00180914503909146030296909347
:1018C0004603809345030B970CF4B0CFD0934603A7
:1018D000C0934503ABCF88EE93E00E94C0016091B6
:1018E00045037091460380E290E0DF91CF911F9114
:1018F0000C941702C09333033FCF0F931F93CF93E2
:10190000DF930E94C30A66EB71E08FEB93E00E94C5
:10191000F834D4E413E50DE441E069E08FEB93E0A3
:101920000E943F2960EB71E08FEB93E00E94F83456
:1019300041E069E08FEB93E00E943F298091320300
:101940000E949C038AE00E949732892BD9F3C091B0
:10195000320310921203109211038AE00E94973210
:10196000019781F464E670E080E090E00E947131BC
:10197000809111039091120301969093120380932A
:101980001103EBCF809111039091120344978CF4D3
:1019900088EC90E00E94C001C43419F40093320333
:1019A000BBCFCD3419F410933203B6CFD0933203AA
:1019B000B3CF88EE93E00E94C0016091320384E0CF
:1019C00090E0DF91CF911F910F910C94B701CF93CD
:1019D000DF930E94C30A6AEA71E08FEB93E00E94F2
:1019E000F834C7E8D3E041E066E08FEB93E00E9473
:1019F0003F2961EA71E08FEB93E00E94F83441E007
:101A000066E08FEB93E00E943F2980913003909134
:101A100031030E94F7038AE00E949732892BD9F3A1
:101A200010921203109211038AE00E9497320197DC
:101A300081F464E670E080E090E00E947131809172
:101A40001103909112030196909312038093110356
:101A5000EBCF80911103909112034497B4F488EC7A
:101A600090E00E94C0018091300390913103029672
:101A700090933103809330038E3993400CF4B3CFAD
:101A8000D0933103C0933003AECF88EE93E0DF9163
:101A9000CF910C94C0010E94C30A6DE971E08FEBF5
:101AA00093E00E94F83441E067E08FEB93E00E94FE
:101AB0003F2964E971E08FEB93E00E94F83441E044
:101AC00067E08FEB93E00E943F2960912E037091B5
:101AD0002F034AE050E08FEB93E00E94D7358AE075
:101AE0000E949732892BD9F310921203109211039E
:101AF0008AE00E949732019781F464E670E080E00A
:101B000090E00E947131809111039091120301962F
:101B10009093120380931103EBCF80911103909166
:101B200012034497ACF488EC90E00E94C0018091CD
:101B30002E0390912F03019690932F0380932E03F1
:101B400008970CF4B0CF10922F0310922E03ABCF56
:101B500088EE93E00C94C0010F931F93CF93DF9313
:101B6000EC018B010C171D0754F0FE01ED5CFB4FDF
:101B700060818EE492E00E942D352196F3CF69ECCE
:101B800071E08EE492E0DF91CF911F910F910C9460
:101B90002B35CF93DF9380913004909131040497DB
:101BA00009F06BC088EC90E00E94C001E3E3F4E030
:101BB000A5E9B3E081918D9384E0E933F807D1F78B
:101BC00080913504803349F480E2809397039091AB
:101BD0003604903311F48093980380E380939A0342
:101BE00080939B03409145035091460324ED33E0DD
:101BF000429FC001439F900D529F900D1124AA2730
:101C000097FDA095BA2F4091A1045091A204609134
:101C1000A3047091A404840F951FA61FB71F4091C1
:101C20000F045091100460911104709112048417F4
:101C30009507A607B707D8F46BE78EE492E00E94F9
:101C40002D3564E070E082E090E00E94AC0D809160
:101C50000F0490911004A0911104B091120480938C
:101C6000A1049093A204A093A304B093A404809130
:101C70009D0390919E03019739F0109231041092C8
:101C80003004DF91CF91089540E061E08FEB93E065
:101C90000E943F29C7E9D3E069918FEB93E00E944E
:101CA0002D3583E0CC39D807B9F7E7CFCF93DF9351
:101CB0008091300490913104069709F067C0E3E306
:101CC000F4E0A5E9B3E081918D9384E0E933F8076E
:101CD000D1F7409145035091460324ED33E0429FF4
:101CE000C001439F900D529F900D1124AA2797FD8C
:101CF000A095BA2F4091A1045091A2046091A30431
:101D00007091A404840F951FA61FB71F40910F0464
:101D1000509110046091110470911204841795077A
:101D2000A607B707D8F46BE78EE492E00E942D3542
:101D300064E070E082E090E00E94AC0D80910F04BE
:101D400090911004A0911104B09112048093A10409
:101D50009093A204A093A304B093A40480913504AB
:101D6000803349F480E28093970390913604903356
:101D700011F48093980380E380939A0380939B03EC
:101D800080919D0390919E03019739F01092310448
:101D900010923004DF91CF91089540E061E08FEB25
:101DA00093E00E943F29C7E9D3E069918FEB93E06C
:101DB0000E942D3583E0CC39D807B9F7E7CFCF9310
:101DC000DF9380913004909131040697B9F5E4E3F4
:101DD000F4E0AEE6B3E081918D9384E0EA33F80756
:101DE000D1F780913504803349F480E280936F030A
:101DF00090913604903311F48093700365E28EE481
:101E000092E00E942D3566E070E082E090E00E9452
:101E1000AC0D809125038330C1F441E061E08FEB8C
:101E200093E00E943F29CFE6D3E069918FEB93E0E6
:101E30000E942D3583E0C437D807B9F710923104DA
:101E400010923004DF91CF91089580919D0390917D
:101E50009E03029799F740E061E08FEB93E00E94C8
:101E60003F29CFE6D3E069918FEB93E00E942D35B7
:101E700083E0C437D807B9F7E1CFCF92DF92EF9272
:101E8000FF920F931F93CF93DF93EC016B017C01C3
:101E9000EE0CFF1CC701855C9C4F7C0100E010E04C
:101EA000CC16DD067CF0F701E00FF11F6081718137
:101EB0004AE050E08EE492E00E94D73521960E5F12
:101EC0001F4FEECF69EC71E08EE492E0DF91CF918D
:101ED0001F910F91FF90EF90DF90CF900C942B35D6
:101EE000CF92DF92EF92FF92CF9341E060E08FEBD1
:101EF00093E00E943F2962E171E08FEB93E00E9442
:101F0000F83461EA71E08FEB93E00E942B3541E0F9
:101F100062E08FEB93E00E943F296091DB037091B8
:101F2000DC038091DD039091DE03C0913303CD3457
:101F300031F426EC39EF4BE95EE30E94F7390E9459
:101F4000AB386B017C0184E6C816D104E104F104CE
:101F500084F0CD3471F0C701B6012AE030E040E0F2
:101F600050E00E94153BAAE0B0E00E94583B6B0194
:101F70007C012AE030E0B701A6018FEB93E00E94DC
:101F80008D3541E067E08FEB93E00E943F2967EADF
:101F900071E08FEB93E00E942B3541E068E08FEB1E
:101FA00093E00E943F2960918B0470918C044AE079
:101FB00050E08FEB93E00E94D735809139039091E8
:101FC0003A03892B21F1C701B6010E94230A6BEA6B
:101FD00071E08EE492E00E942B3565E070E081E0D4
:101FE00090E00E943D0F10923A03109239038091C5
:101FF0000F0490911004A0911104B09112048093E9
:10200000950490939604A0939704B0939804CF916D
:10201000FF90EF90DF90CF9008952091D5043091FC
:10202000D60412161306CCF46DEA71E08FEB93E040
:102030000E942B356091AD047091AE044AE050E0EF
:102040008FEB93E00E94D7358091AD049091AE0460
:102050000A9744F565EA71E009C02091DB043091EC
:10206000DC042436310534F06FEA71E08FEB93E045
:102070000C942B3582179307ACF463EB71E08FEB74
:1020800093E00E942B356091DB047091DC044AE000
:1020900050E08FEB93E00E94D7358091DB04909164
:1020A000DC04D6CF0895CF93DF9341E06BE08FEB54
:1020B00093E00E943F296CE071E08FEB93E00E9477
:1020C000F83441E06BE08FEB93E00E943F29809170
:1020D000150490911604892B79F0C1E2D4E069913E
:1020E00079914AE050E08FEB93E00E94D73584E08D
:1020F000CB32D807A1F763C0809133038D3449F404
:102100006091A9047091AA048091AB049091AC04F1
:1021100014C020E030E146E755E46091A9047091D5
:10212000AA048091AB049091AC040E94F73920E09E
:1021300030E046E954E40E9443380E94B03860938E
:10214000A5047093A6048093A7049093A8046091BB
:10215000A5047091A6048091A7049091A80424E698
:1021600030E040E050E00E94F33A2093A504309321
:10217000A6044093A7045093A80441E06BE08FEBC2
:1021800093E00E943F2966E071E08FEB93E00E94AC
:10219000F83441E06BE08FEB93E00E943F294091DF
:1021A000A5045091A6046091A7047091A8042AE0A8
:1021B00030E08FEB93E0DF91CF910C94DF35DF912E
:1021C000CF91089540E060E08FEB93E00E943F29BB
:1021D00066E271E08FEB93E00E94F8346091DF03D8
:1021E0007091E0038091E1039091E2030E94AB388B
:1021F0004AE050E08FEB93E00E94D73520E030E0DA
:1022000048EC52E46091DF037091E0038091E103B8
:102210009091E2030E943C3887FF06C065EA71E0B6
:102220008FEB93E00E942B3520E030E040E251E458
:102230006091DF037091E0038091E1039091E203EC
:102240000E943C3887FF06C065EA71E08FEB93E09F
:102250000E942B3540E06DE08FEB93E00E943F2918
:1022600089E090E00E940D100E94700F0E945310B0
:102270008091950490919604A0919704B091980450
:10228000805F984DAF4FBF4F40910F0450911004A5
:10229000609111047091120484179507A607B7077F
:1022A00020F58FEF9FEF90933A038093390360916D
:1022B000DF037091E0038091E1039091E2030E94BB
:1022C000AB380E94230A60E875E28EE492E00E9437
:1022D000C62665EB71E08EE492E00E942B3565E046
:1022E00070E083E090E00C943D0F0895CF92EF9260
:1022F0000F93B7E0CB2E06E0E02E05E024E048E0A7
:1023000069E08FEB93E00E94142A60E472E087E4B6
:1023100093E00E94473782E692E00E947A2A109268
:1023200051021092500288EE93E0A0E0B0E080935A
:10233000520290935302A0935402B093550282EE3E
:1023400091E090934F0280934E028CE080935A026A
:102350008DE080935B0210926102109260020F91F7
:10236000EF90CF90089587E493E00C94D9367F9254
:102370008F929F92AF92BF92CF92DF92EF92FF9295
:102380000F931F93CF93DF9300D000D01F92CDB750
:10239000DEB719821A821B821C821D82CE01019631
:1023A0007C016C0100E010E083E595E00E94C03202
:1023B000892BD1F383E595E00E94D93280933403D1
:1023C0008E3349F0F60181936F010F5F1F4F063086
:1023D000110551F745C0670160E070E0CB01F601DF
:1023E00071906F0120ED270D2A30D0F520E030E00C
:1023F00040E251E40E94F7394B015C01672D7727D9
:1024000067FD709560537109882777FD8095982F37
:102410000E94DE389B01AC01C501B4010E947637F1
:1024200096012E193F0920173107CCF22091330372
:102430002D3431F421EA38EF41E550E40E9443386D
:102440000E94AB380E94230AEDE3F3E0A1E2B4E07E
:10245000819191918D939D9383E0E734F807C1F7C3
:102460000F900F900F900F900F90DF91CF911F91D1
:102470000F91FF90EF90DF90CF90BF90AF909F9023
:102480008F907F9008954F925F926F927F92AF925C
:10249000BF92CF92DF92EF92FF920F931F93CF9351
:1024A000DF93CDB7DEB72A970FB6F894DEBF0FBE25
:1024B000CDBF1A8219821C821B821E821D82188641
:1024C0001F821A861986CE0101967C0100E010E079
:1024D00083E595E00E94C032892BD1F383E595E036
:1024E0000E94D932809334038E3329F4FE01319651
:1024F00080E090E016C0992787FD9095F7018193C1
:1025000091937F010F5F1F4F0630110509F75AC0E5
:1025100021913191205331092A30310508F052C000
:10252000019680179107A4F381E090E09093140442
:1025300080931304CE0101965C01C12CD12C60E084
:1025400070E0CB01F501E190F1905F01F0E3EF1A4B
:10255000F1082AE0E216F104A8F520E030E040E2BC
:1025600051E40E94F7392B013C01B701882777FD20
:102570008095982F0E94DE389B01AC01C301B20107
:102580000E947637EFEFCE1ADE0AC016D106D4F2DB
:10259000209133032D3431F421EA38EF41E550E442
:1025A0000E9443380E94AB380E94230AEDE3F3E017
:1025B000A7E1B4E0819191918D939D9323E0E7345D
:1025C000F207C1F72A960FB6F894DEBF0FBECDBF53
:1025D000DF91CF911F910F91FF90EF90DF90CF90FF
:1025E000BF90AF907F906F905F904F900895CF9382
:1025F000DF93C3E3D4E083E595E00E94C032892BEA
:10260000D1F383E595E00E94D932809334038D376E
:1026100069F48091330490ED980F9A3068F08093BC
:102620002D048091340480932E0406C0899384E0A5
:10263000C633D80701F7EDCFDF91CF910895CF933F
:10264000DF93C0E0D0E083E595E00E94C032892BA3
:1026500081F083E595E00E94D932809334038E3374
:1026600079F0FE01E55DFB4F8083219749F0C1E0E1
:10267000D0E061E070E080E090E00E947131E3CF53
:10268000DF91CF9108958F929F92AF92BF92CF9298
:10269000DF92EF92FF9283E595E00E94C0326C01D9
:1026A0001816190654F00E9442314B015C018AE071
:1026B0000E949732019779F746C0E12CF12C83E50F
:1026C00095E00E94D932809334038C3371F03CF44E
:1026D000873061F58CE291E00E94C0012CC08E33FE
:1026E00091F08E3509F479C021C040E060E08FEBB5
:1026F00093E00E943F2960E471E08FEB93E00E9439
:10270000F83440E00DC041E060E08FEB93E00E94C0
:102710003F296FE271E08FEB93E00E94F83441E0D3
:1027200060E08FEB93E00E943F2905C0682F8FEB9C
:1027300093E00E942D352FEFE21AF20AEC14FD040B
:1027400009F0BDCFB0CF8AE00E9497320197D9F34C
:102750000E9442316B017C01C818D908EA08FB08C5
:10276000D701C601C397A109B109893F9105A10508
:10277000B10550F484E690E00E94C00167EB71E07F
:1027800083E595E00E942B35D701C601895E934011
:10279000A109B109873E9340A105B10558F480E92C
:1027A00091E00E94C0016DE070E083E595E00E9439
:1027B000B90171CF89E8C81683E1D806E104F104B4
:1027C00008F469CF80E293E00E94C0016DE971E0F6
:1027D00083E595E00E942B355ECFFF90EF90DF9070
:1027E000CF90BF90AF909F908F900895CF93DF933D
:1027F000C3E3D4E083E595E00E94C032892BD1F396
:1028000083E595E00E94D932809334038D3741F4FB
:1028100020913304213351F484E680932D0406C0C3
:10282000899384E0CA33D80729F7F2CF9091340412
:10283000923319F48DE680932E048091350483330E
:1028400019F431E630932F04213411F424E403C049
:102850002D3219F420E220932D04923411F49DE4DA
:1028600003C09D3219F490E290932E04833411F446
:1028700081E403C08D3219F480E280932F04DF914C
:10288000CF910895CF92DF92EF92FF92CF93DF9393
:10289000E0913003F0913103DF0120E432E44FE0B6
:1028A00050E00E94633B6B017C0160931F037093B7
:1028B00020038093210390932203A0912E03B091D3
:1028C0002F0320E930ED43E050E00E94633B60932A
:1028D0001B0370931C0380931D0390931E03DC0164
:1028E000CB018C0D9D1DAE1DBF1D809317039093D2
:1028F0001803A0931903B0931A03AD016627772735
:102900005093130340931403AA27BB2790931503F6
:1029100080931603E93A81E0F80759F483E3809342
:10292000130382ED809314038FE58093150388E6EB
:102930001CC0ED3082E0F80759F483E38093130361
:1029400083ED8093140386EE8093150388E00DC019
:10295000E137F24061F483E38093130385ED8093C4
:1029600014038CE68093150388EA8093160360E0D5
:1029700082E00E94613268EC70E080E090E00E94AA
:10298000713183E595E00E94C032892BC9F568EC6E
:1029900070E080E090E00E9471316AEA70E083E5C7
:1029A00095E00E94B9016AEF70E083E595E00E942E
:1029B000B90162ED70E083E595E00E94B901609194
:1029C000130383E595E00E943E336091140383E591
:1029D00095E00E943E336091150383E595E00E94E7
:1029E0003E336091160383E595E00E943E3368EC28
:1029F00070E080E090E00E947131EFE9F3E011C0F7
:102A000083E595E00E94C032892B09F283E595E0C9
:102A10000E94D93262E070E080E090E00E94713163
:102A2000EFCF119283E0EF3BF807D9F783E595E00C
:102A30000E94C032892B31F480919F038F3409F0BA
:102A400096CF0EC0CFE9D3E083E595E00E94C03277
:102A5000892B91F383E595E00E94D9328993F4CFD5
:102A60008091A0038B3409F082CF60913003709184
:102A7000310386E090E00E94170260912E0370916E
:102A80002F0388E090E0DF91CF91FF90EF90DF90EF
:102A9000CF900C9417020E94D30A80912303909147
:102AA00024038D7F019751F40E94540B0E94AF0BB9
:102AB00080912503833010F40E947D0C80912303C4
:102AC000909124030297029730F40E94E70C0E9431
:102AD0004B0D0E9442148FEB93E00E94382969EB62
:102AE00071E08FEB93E00E942B3541E060E08FEBCB
:102AF00093E00E943F296BE272E08FEB93E00E942B
:102B0000F83488EE93E00E94C001FFCFCF92DF92AD
:102B1000EF92FF920F931F93CF93DF934EE651E016
:102B200060E08FEB93E00E943A2A46E651E061E0D4
:102B30008FEB93E00E943A2A4EE551E062E08FEB82
:102B400093E00E943A2A46E551E063E08FEB93E080
:102B50000E943A2A4EE451E064E08FEB93E00E9439
:102B60003A2A46E451E065E08FEB93E00E943A2A6E
:102B70004EE351E066E08FEB93E00E943A2A46E391
:102B800051E067E08FEB93E00E943A2A809187043E
:102B90009091880440E0892B91F56AE08FEB93E0F7
:102BA0000E943F296CEB71E08FEB93E00E942B3584
:102BB00020E030E048EC52E46091DF037091E003E4
:102BC0008091E1039091E2030E943C3887FF06C0A8
:102BD00065EA71E08FEB93E00E942B356091DF0393
:102BE0007091E0038091E1039091E2030E94AB3881
:102BF0004AE050E08FEB93E00E94D73589C06BE04C
:102C00008FEB93E00E943F292091DF033091E00396
:102C10004091E1035091E2036091EF037091F00362
:102C20008091F1039091F2030E9475370E94AB38B6
:102C30006B017C01EB0177FF14C0C859DE4FC53B27
:102C4000D1052CF0CC27DD27C61BD70B11C062ECB9
:102C500071E08FEB93E00E942B354AE050E0BE011B
:102C600020C0653B7105A4F0C8E6D1E0C61BD70BB8
:102C70006FEB71E08FEB93E00E942B354AE050E060
:102C8000BE018FEB93E00E94D73500E010E00FC04B
:102C900062EC71E08FEB93E00E942B354AE050E04C
:102CA000B6018FEB93E00E94D73501E010E0C43607
:102CB000D1057CF465EA71E08FEB93E00E942B353F
:102CC000CA30D10534F465EA71E08FEB93E00E94DD
:102CD0002B350130110531F488E691E09C012C1B65
:102CE0003D0BE901669640E069E08FEB93E00E94BE
:102CF0003F29CE016DE270E00E94DF3AC62F8FEBD4
:102D000093E00E94742A6C2F8FEB93E00E94742A48
:102D100041E06BE08FEB93E00E943F296091DB0381
:102D20007091DC038091DD039091DE0320913303E9
:102D30002D3431F426EC39EF4BE95EE30E94F7398C
:102D40000E94AB382AE030E040E050E00E94153BA2
:102D5000AAE0B0E00E94583B6B017C012AE030E021
:102D6000AB01BC018FEB93E00E948D3530E1C316BF
:102D700037E2D306E104F1043CF565EA71E08FEB3C
:102D800093E00E942B3588EEC81683E0D806E10454
:102D9000F104D4F465EA71E08FEB93E00E942B35E7
:102DA00024E6C216D104E104F10474F465EA71E08A
:102DB0008FEB93E0DF91CF911F910F91FF90EF90F8
:102DC000DF90CF900C942B35DF91CF911F910F9115
:102DD000FF90EF90DF90CF90089540E06AE08FEB96
:102DE00093E00E943F2984E090E00E940D108091C2
:102DF0001504909116040197D9F540E06EE08FEB31
:102E000093E00E943F2980912503813031F440E016
:102E10006DE08FEB93E00E943F2980912B0480337B
:102E200089F460E871E08FEB93E00E942B3580918C
:102E300025038130E9F465EA71E08FEB93E00E94AD
:102E40002B3516C060912D048FEB93E00E94742AFD
:102E500060912E048FEB93E00E94742A80912503E9
:102E6000813031F460912F048FEB93E00E94742A3B
:102E70000E9453108091150490911604019709F057
:102E800043C18091990490919A04A0919B04B091C0
:102E90009C0488519C4FAF4FBF4F40910F045091FD
:102EA0001004609111047091120484179507A6070D
:102EB000B70708F0E9C080912B04823394F065ECE9
:102EC00071E08EE492E00E942B3560912B048EE439
:102ED00092E00E942D3569EC71E08EE492E00E9450
:102EE0002B3580912D04843631F467EC71E08EE44B
:102EF00092E00E942B3580912E048D3631F46BECDC
:102F000071E08EE492E00E942B3580912F0481368F
:102F100031F46FEC71E08EE492E00E942B358091E9
:102F200013049091140418161906E4F565E28EE472
:102F300092E00E94AB2760911704709118044AE058
:102F400050E08EE492E00E94D735609119047091B0
:102F50001A044AE050E08EE492E00E94D735609176
:102F60001B0470911C044AE050E08EE492E00E9441
:102F7000D73560911D0470911E044AE050E08EE444
:102F800092E00E94D73560911F04709120044AE0BE
:102F900050E08EE492E00E94D7356EE38EE492E03A
:102FA0000E94AB27409145035091460324ED33E046
:102FB000429FC001439F900D529F900D1124AA275C
:102FC00097FDA095BA2F40919D0450919E04609169
:102FD0009F047091A004840F951FA61FB71F4091F6
:102FE0000F04509110046091110470911204841721
:102FF0009507A607B707C0F56BE78EE492E00E943D
:10300000AB2760912104709122044AE050E08EE4E5
:1030100092E00E94D73560912304709124044AE025
:1030200050E08EE492E00E94D735609125047091C3
:1030300026044AE050E08EE492E00E94D7356EE329
:103040008EE492E00E94AB2780910F0490911004CF
:10305000A0911104B091120480939D0490939E045A
:10306000A0939F04B093A00480910F04909110044A
:10307000A0911104B09112048093990490939A0442
:10308000A0939B04B0939C0480912B0480538230C6
:10309000D8F580918D0490918E04A0918F04B09109
:1030A00090048856954CAF4FBF4F40910F045091FC
:1030B0001004609111047091120484179507A607FB
:1030C000B70710F565EC71E08EE492E00E942B35B5
:1030D00060912B048EE492E00E94AB2769EC71E0D2
:1030E0008EE492E00E942B3580910F0490911004A1
:1030F000A0911104B091120480938D0490938E04DA
:10310000A0938F04B09390046091A5047091A604DD
:103110008091A7049091A8040E94230A63ED71E0B6
:103120008EE492E00E942B3563E070E081E090E055
:103130000C943D0FCF92DF92EF92FF920F931F936B
:10314000CF93DF934EE651E060E08FEB93E00E9477
:103150003A2A46E651E061E08FEB93E00E943A2A7A
:103160004EE551E062E08FEB93E00E943A2A46E59B
:1031700051E063E08FEB93E00E943A2A4EE451E085
:1031800064E08FEB93E00E943A2A46E451E065E068
:103190008FEB93E00E943A2A4EE351E066E08FEB1A
:1031A00093E00E943A2A46E351E067E08FEB93E018
:1031B0000E943A2A2091DF033091E0034091E1031D
:1031C0005091E2036091EF037091F0038091F1035D
:1031D0009091F2030E9475370E94AB386B017C011D
:1031E000EB0140E06DE08FEB93E00E943F2989E026
:1031F00090E00E940D108091950490919604A0910A
:103200009704B0919804805F984DAF4FBF4F4091A5
:103210000F045091100460911104709112048417EE
:103220009507A607B70730F48FEF9FEF90933A0307
:103230008093390340E060E08FEB93E00E943F29E8
:10324000D7FF15C0E601C859DE4FC53BD1052CF0AC
:10325000CC27DD27CC19DD0911C062EC71E08FEBC2
:1032600093E00E942B354AE050E0BE012AC0C53BE6
:10327000D105F4F0C8E6D1E0CC19DD096FEB71E0BF
:103280008FEB93E00E942B354AE050E0BE018FEBBC
:1032900093E00E94D7358091390390913A03892BAE
:1032A00009F165ED71E08EE492E00E942B351AC0C1
:1032B00062EC71E08FEB93E00E942B354AE050E026
:1032C000B6018FEB93E00E94D7358091390390913E
:1032D0003A03892B51F067ED71E08EE492E00E9491
:1032E0002B3503C000E010E002C001E010E0C4365E
:1032F000D1057CF465EA71E08FEB93E00E942B35F9
:10330000CA30D10534F465EA71E08FEB93E00E9496
:103310002B358091390390913A03892B69F0BE01D6
:10332000882777FD8095982F0E94230A65E070E03A
:1033300083E090E00E943D0F40E068E08FEB93E077
:103340000E943F290130110531F488E691E09C018B
:103350002C1B3D0BE901CE0146966DE270E00E9408
:10336000DF3AC62F8FEB93E00E94742A6C2F8FEB0D
:1033700093E00E94742A6C2F8FEB93E00E94742AD2
:10338000DF91CF911F910F91FF90EF90DF90CF9041
:103390000C94700FCF93DF9340E060E08FEB93E0ED
:1033A0000E943F2961E08FEB93E00E94742A40E085
:1033B00061E08FEB93E00E943F29C7E9D3E0699178
:1033C0008FEB93E00E942D3583E0CC39D807B9F715
:1033D00040E067E08FEB93E00E943F29C7E8D3E02D
:1033E00069918FEB93E00E942D3583E0CC38D807AC
:1033F000B9F740E06CE08FEB93E00E943F29C7E70C
:10340000D3E069918FEB93E00E942D3583E0CB37B9
:10341000D807B9F741E061E08FEB93E00E943F29C4
:1034200080912503833001F5CFE6D3E069918FEBDE
:1034300093E00E942D3583E0C437D807B9F741E007
:1034400067E08FEB93E00E943F2967E473E08FEB26
:1034500093E00E941D3541E06AE08FEB93E00E940B
:103460003F29CFE7D3E00CC0CFE8D3E069918FEBE1
:1034700093E00E942D3583E0C439D807B9F7DFCF38
:1034800069918FEB93E00E942D3583E0C538D80712
:10349000B9F7DF91CF910895CF93DF9340E060E0DB
:1034A0008FEB93E00E943F2962E08FEB93E00E9454
:1034B000742A40E061E08FEB93E00E943F29CFE661
:1034C000D3E069918FEB93E00E942D3583E0C43700
:1034D000D807B9F740E068E08FEB93E00E943F29FE
:1034E000CFE5D3E069918FEB93E00E942D3583E027
:1034F000C236D807B9F740E06CE08FEB93E00E944A
:103500003F29C7E7D3E069918FEB93E00E942D3507
:1035100083E0CB37D807B9F741E062E08FEB93E067
:103520000E943F29C7E6D3E069918FEB93E00E94A8
:103530002D3583E0CB36D807B9F780915803803218
:10354000F1F041E067E08FEB93E00E943F2960914A
:1035500057038FEB93E00E942D35609158038FEB5A
:1035600093E00E942D356BE971E08FEB93E00E94B0
:103570002B35609159038FEB93E00E942D3580919C
:103580005103803231F141E06BE08FEB93E00E9418
:103590003F2960914F038FEB93E00E942D3560919E
:1035A00050038FEB93E00E942D35609151038FEB18
:1035B00093E00E942D356BE971E08FEB93E00E9460
:1035C0002B35609152038FEB93E0DF91CF910C94F8
:1035D0002D35DF91CF910895CF92DF92EF92FF9238
:1035E0000F931F93CF93DF9380910F04909110045A
:1035F000A0911104B0911204809335039093360387
:10360000A0933703B0933803C1E0D0E002E010E0AC
:103610000E94423160930F04709310048093110450
:103620009093120483E595E00E94C032892B09F43F
:103630004AC080910F0490911004A0911104B091A0
:1036400012048093350390933603A0933703B0930D
:10365000380383E595E00E94D932809334038E339A
:1036600009F44CC08B37C1F094EC980F9230A0F065
:10367000853291F0982F9F7D9E3571F0883261F0F0
:1036800091EC980F923040F095EA980F923020F02C
:10369000982F9D7F913249F480933204D093310466
:1036A000C093300480933404B3CF20913004309120
:1036B00031042F5F3F4F3093310420933004F901E0
:1036C000ED5CFB4F80830E944231C0903503D09067
:1036D0003603E0903703F090380324E6C20ED11C85
:1036E000E11CF11CC616D706E806F90608F090CFD3
:1036F00080912503833009F09FC08ACF80913204E6
:103700008B3751F4DF91CF911F910F91FF90EF9084
:10371000DF90CF900C94C90D8C3351F4DF91CF9191
:103720001F910F91FF90EF90DF90CF900C94560E69
:10373000853251F4DF91CF911F910F91FF90EF905F
:10374000DF90CF900C94DF0E883251F4DF91CF914F
:103750001F910F91FF90EF90DF90CF900C945A073C
:103760008C3551F4DF91CF911F910F91FF90EF9025
:10377000DF90CF900C949907833251F4DF91CF9171
:103780001F910F91FF90EF90DF90CF900C94D10795
:10379000813251F4DF91CF911F910F91FF90EF9003
:1037A000DF90CF900C9496088F3351F4DF91CF9136
:1037B0001F910F91FF90EF90DF90CF900C94E10854
:1037C0008E3551F4DF91CF911F910F91FF90EF90C3
:1037D000DF90CF900C9425098B3551F4DF91CF9178
:1037E0001F910F91FF90EF90DF90CF900C94740990
:1037F0008E3751F4DF91CF911F910F91FF90EF9091
:10380000DF90CF900C94B209803451F4DF91CF91C6
:103810001F910F91FF90EF90DF90CF900C940E08C6
:103820008D33B9F5DF91CF911F910F91FF90EF90FC
:10383000DF90CF900C941D0A8AE00E949732019786
:1038400009F0E6CE6AE070E080E090E00E9471311D
:103850008AE00E9497320197A9F380919D0390918D
:103860009E03019759F48FEB93E00E9438290E9440
:103870004C1A10939E0300939D03CACE8FEB93E0E6
:103880000E9438290E94CA19D0939E03C0939D03B9
:10389000BFCEDF91CF911F910F91FF90EF90DF90FE
:1038A000CF900895CF93DF9300D000D0CDB7DEB78F
:1038B00080ED97E00E94C0018AE00E949732019754
:1038C00009F034C780912503833008F02FC78AE0C0
:1038D0000E9497320197D9F32FC0823069F56FE7C4
:1038E00072E08FEB93E00E94F8340E9442316093C3
:1038F000CB047093CC048093CD049093CE0483E5E5
:1039000095E00E94C032892B11F40C94422583E586
:1039100095E00E94D93280933403833211F00C94E5
:10392000422569ED71E083E595E00E942B3582E048
:10393000809325030E9443131092880410928704F9
:1039400088E893E190938A04809389048091250309
:10395000833010F40E94230780918704909188049B
:10396000892B09F431C18FE796E9A8E9B0E080938B
:10397000E7039093E803A093E903B093EA038FEB86
:1039800093E00E94382961E772E08FEB93E00E9498
:10399000F83441E061E08FEB93E00E943F2960E65C
:1039A00072E08FEB93E00E94F8340E9442316B0189
:1039B0007C014091E7035091E8036091E903709125
:1039C000EA034F3716E9510718E96107710509F055
:1039D000C3C08EE492E00E9493271816190664F47F
:1039E0008EE492E00E945D2580933403682F82E686
:1039F00092E00E946F30EDCF80916302882309F43A
:103A000082C082E692E00E94CF2D6093FF03709304
:103A10000004809301049093020482E692E00E94E5
:103A2000FB2D4B015C016093FB037093FC038093BF
:103A3000FD039093FE038091F7049091F804A09108
:103A4000F904B091FA048093F7039093F803A093DC
:103A5000F903B093FA038091F3049091F404A091D8
:103A6000F504B091F6048093F3039093F403A093CC
:103A7000F503B093F6031092EB031092EC0310924F
:103A8000ED031092EE031092EF031092F0031092E8
:103A9000F1031092F20320E030E543EC57E460912B
:103AA000FF037091000480910104909102040E9430
:103AB000F7390E94AB386093E7037093E803809373
:103AC000E9039093EA0320E030E543EC57E4C501B5
:103AD000B4010E94F7390E94AB386093E3037093FE
:103AE000E4038093E5039093E6038091CA02882360
:103AF00051F01092CB028091D0029091D10290931C
:103B00008C0480938B048091E7039091E803A0914B
:103B1000E903B091EA038F379649A849B10509F046
:103B200048CF0E9442316C197D098E099F09693B7B
:103B30007B408105910508F43CCF88EC90E00E9421
:103B4000C00164EF71E080E090E00E94713188EC88
:103B500090E00E94C00129CF81E090E0909306049C
:103B60008093050490930A048093090484E190E013
:103B70000E9427024091E3035091E4036091E50322
:103B80007091E60388E190E00E9427020E94423192
:103B900060938304709384048093850490938604D7
:103BA0008FEB93E00E94382965E572E08FEB93E09C
:103BB0000E94F83488EE93E00E94C00168E873E147
:103BC00080E090E00E9471318EE492E00E947325C3
:103BD0008FEB93E00E94382969E472E08FEB93E069
:103BE0000E94F83441E061E08FEB93E00E943F29AE
:103BF0006AE372E08FEB93E00E94F83410920A04BB
:103C0000109209041092D4041092D3041092D80494
:103C10001092D7040E94423160930F0470931004F5
:103C200080931104909312046093CB047093CC049E
:103C30008093CD049093CE046093CF047093D0040E
:103C40008093D1049093D20410920604109205043C
:103C500010921604109215041092A9041092AA044E
:103C60001092AB041092AC041092AE041092AD040A
:103C700010928C0410928B04809125038150823025
:103C800030F481E090E090931604809315048FE364
:103C900092E4AFE0B0E08093E7049093E804A0934F
:103CA000E904B093EA048093E3049093E404A093BE
:103CB000E504B093E60444E0842E912C22242A9457
:103CC000322C1092D6041092D5041092DE04109279
:103CD000DD040E94423160930F04709310048093BE
:103CE0001104909312048091D7049091D804892BE9
:103CF00051F58AE00E949732019729F58091D3040B
:103D00009091D404892BF9F48AE00E9497320197AC
:103D1000D9F38FEB93E00E94382921E030E0309313
:103D2000D4042093D3040E94FE030E94BA040E948C
:103D30004F040E94861590920A0480920904909282
:103D400008048092070480918704909188041816D3
:103D500019060CF08EC18091090490910A04019714
:103D600009F487C18091890490918A04AA2797FD5C
:103D7000A095BA2F409183045091840460918504EA
:103D800070918604840F951FA61FB71F40910F04E2
:103D900050911004609111047091120484179507DA
:103DA000A607B70708F065C160E875E28EE492E007
:103DB0000E94C6268EE492E00E94932718161906E8
:103DC00064F48EE492E00E945D2580933403682FB2
:103DD00082E692E00E946F30EDCF809163028823EB
:103DE00009F400C182E692E00E94CF2D2B013C0134
:103DF00082E692E00E94FB2D69837A838B839C8309
:103E00002091F3033091F4034091F5035091F603B0
:103E10006091F7037091F8038091F9039091FA0390
:103E2000A980BA80CB80DC80830172010E94012CC2
:103E300021EA38EF41E550E40E94F7396B017C013B
:103E400020E030E0A9010E94EC39181624F0C701E7
:103E5000B601905802C0C701B6016093EB0370939E
:103E6000EC038093ED039093EE0320E030E040E418
:103E700050E40E94EC3918160CF0AFC04092FF03DA
:103E800050920004609201047092020489819A8128
:103E9000AB81BC818093FB039093FC03A093FD0353
:103EA000B093FE03A1E0B0E0B0930404A093030438
:103EB0002091F3033091F4034091F5035091F60300
:103EC0006091F7037091F8038091F9039091FA03E0
:103ED000A980BA80CB80DC80830172010E94E82C2B
:103EE0006093EF037093F0038093F1039093F203D8
:103EF00020E030E543EC57E46091FF03709100044B
:103F000080910104909102040E94F7390E94AB381D
:103F10006B017C016093E7037093E8038093E903EE
:103F20009093EA0320E030E543EC57E46091FB0313
:103F30007091FC038091FD039091FE030E94F7397C
:103F40000E94AB386093E3037093E4038093E5032E
:103F50009093E603B701A60184E190E00E94270256
:103F60004091E3035091E4036091E5037091E6030F
:103F700088E190E00E9427028091FF039091000465
:103F8000A0910104B09102048093F7039093F80389
:103F9000A093F903B093FA038091FB039091FC0383
:103FA000A091FD03B091FE038093F3039093F4037B
:103FB000A093F503B093F60380910F049091100441
:103FC000A0911104B091120480938304909384040F
:103FD000A0938504B093860431C01092040410921B
:103FE00003042CC0409183045091840460918504A3
:103FF000709186044053584F6F4F7F4F80918904D2
:1040000090918A04AA2797FDA095BA2F480F591FAF
:104010006A1F7B1F80910F0490911004A0911104DE
:10402000B091120484179507A607B70708F4C2CE0B
:1040300061E070E080E090E00E9471318EE492E0F7
:104040000E94732580910F0490911004A091110497
:10405000B09112048093830490938404A093850408
:10406000B093860464E670E080E090E00E947131D5
:1040700028CE0E94423160930F0470931004809305
:1040800011049093120483E595E00E94C032892BBD
:1040900099F1E1E0F0E0F093DE04E093DD0483E5E4
:1040A00095E00E94D9328093340320911504309119
:1040B000160421303105C9F48C3319F40E94B7116C
:1040C00000CE8B3719F40E94F712FBCD853219F41C
:1040D0000E944312F6CD813219F40E941F13F1CDD4
:1040E0008E3719F40E94F613ECCD682F82E692E029
:1040F0000E946F30882339F280916302882309F48B
:10410000E2C082E692E00E94CF2D6093F7047093A4
:10411000F8048093F9049093FA0482E692E00E94F6
:10412000FB2D2B013C016093F3047093F404809306
:10413000F5049093F60420E030E543EC57E46091F9
:10414000F7047091F8048091F9049091FA040E94A8
:10415000F7390E94AB386B017C016093EF047093D8
:10416000F0048093F1049093F20420E030E543ECF6
:1041700057E4C301B2010E94F7390E94AB38609343
:10418000EB047093EC048093ED049093EE040091A3
:104190000F04109110042091110430911204009327
:1041A000DF041093E0042093E1043093E2043092A2
:1041B000DC042092DB042091D7043091D804232B17
:1041C00051F401E010E010930A04009309041093E5
:1041D000D8040093D7040091E7041091E8042091DB
:1041E000E9043091EA04C016D106E206F30669F448
:1041F0000091E3041091E4042091E5043091E60479
:10420000601771078207930791F0B701A6018CE050
:1042100090E00E9427024091EB045091EC046091E1
:10422000ED047091EE0480E190E00E94270221E00D
:1042300030E03093D6042093D5048091EF04909120
:10424000F004A091F104B091F2048093E7049093FC
:10425000E804A093E904B093EA048091EB04909100
:10426000EC04A091ED04B091EE048093E3049093EC
:10427000E404A093E504B093E6048091BC02882393
:10428000A1F01092BD026091C2027091C3028091B0
:10429000C4029091C5020E94DE386093A904709315
:1042A000AA048093AB049093AC048091CA02882343
:1042B00051F01092CB028091D0029091D102909354
:1042C000AE048093AD048091D5049091D604892BDF
:1042D00009F096C08091D7049091D8041816190659
:1042E000ACF580910F0490911004A0911104B0914D
:1042F00012048093CF049093D004A093D104B09380
:10430000D2044091DF045091E0046091E104709187
:10431000E2048C019D01041B150B260B370BC90110
:10432000B80128EE33E040E050E00E94F33A3093C9
:10433000DA042093D9048091DB049091DC04821785
:10434000930724F43093DC042093DB048091DD0494
:104350009091DE04892BB9F180910B0490910C04AB
:10436000A0910D04B0910E048854944FAF4FBF4FED
:1043700040910F0450911004609111047091120447
:1043800084179507A607B707F0F484E690E00E942B
:10439000C00164E670E080E090E00E94713184E644
:1043A00090E00E94C00180910F0490911004A091B0
:1043B0001104B091120480930B0490930C04A09309
:1043C0000D04B0930E048091D7049091D804892BEA
:1043D000B9F48091D3049091D404181619060CF006
:1043E00070CC0E94BA040E944F040E9486159092DD
:1043F0000A0480920904909208048092070461CC18
:104400008AE00E949732019709F0DEC08AE00E949C
:1044100097320197D9F38091050490910604892B76
:1044200009F078C08091D7049091D804892B09F4C1
:10443000CBC021E030E03093060420930504609166
:10444000F7047091F8048091F9049091FA04609354
:10445000FF03709300048093010490930204409042
:10446000F3045090F4046090F5047090F6044092C8
:10447000FB035092FC036092FD037092FE0320E068
:1044800030E543EC57E40E94F7390E94AB386B01EA
:104490007C016093E7037093E8038093E9039093B2
:1044A000EA0320E030E543EC57E4C301B2010E9487
:1044B000F7390E94AB386093E3037093E403809371
:1044C000E5039093E603B701A60184E190E00E9422
:1044D00027024091E3035091E4036091E50370915A
:1044E000E60388E190E00E94270281E090E090934B
:1044F0000A048093090484E690E00E94C00164E607
:1045000070E080E090E00E94713184E690E00E94CB
:10451000C0015AC08091090490910A049093080444
:10452000809307048130910519F00297B9F046C0D5
:10453000A2E0B0E0B0930A04A0930904809187043C
:1045400090918804892B09F43FC010928304109243
:104550008404109285041092860436C080918704EA
:1045600090918804892B19F1E3E0F0E0F0930A04BC
:10457000E09309041092830410928404109285043D
:104580001092860480910F0490911004A091110460
:10459000B091120481519742A109B109809391040D
:1045A00090939204A0939304B09394040DC001E0FF
:1045B00010E010930A040093090406C021E030E0E3
:1045C00030930A0420930904809183049091840419
:1045D000A0918504B0918604892B8A2B8B2B39F40A
:1045E0008091870490918804892B09F06ACB2091EF
:1045F000090430910A048091070490910804281757
:10460000390721F08FEB93E00E943829809109044B
:1046100090910A04029799F588E893E190938A04AF
:10462000809389048091910490919204A0919304C5
:10463000B091940488579C4EAF4FBF4F40910F04E8
:104640005091100460911104709112044817590799
:104650006A077B0790F00E944F0480910F049091AD
:104660001004A0911104B0911204809391049093CE
:104670009204A0939304B09394040E94E21080915A
:10468000090490910A04039799F5A0EDB7E0B0935F
:104690008A04A09389048091910490919204A0913E
:1046A0009304B091940488579C4EAF4FBF4F4091F4
:1046B0000F04509110046091110470911204481776
:1046C00059076A077B0790F00E944F0480910F04FE
:1046D00090911004A0911104B09112048093910460
:1046E00090939204A0939304B09394040E949A1818
:1046F0008091090490910A04019721F40E94BA0460
:104700000E94ED168091D5049091D60418161906D2
:1047100024F482E390E00E94C0018091090490910A
:104720000A049093080480930704CBCA8FEB93E0AC
:104730000E94382967EA72E08FEB93E00E94F83418
:1047400041E060E08FEB93E00E943F2962EA72E073
:104750008FEB93E00E94F83466E771E08FEB93E013
:104760000E942B3568E873E180E090E00E9471318F
:104770008FEB93E00E9438296AE972E08FEB93E0B7
:104780000E94F83440E068E08FEB93E00E943F29FC
:104790006BED71E08FEB93E00E942B35609130035D
:1047A000709131034AE050E08FEB93E00E94D735DF
:1047B00065EA71E08FEB93E00E942B3560912E0348
:1047C00070912F034AE050E08FEB93E00E94D735C1
:1047D00041E060E08FEB93E00E943F2965E972E0E1
:1047E0008FEB93E00E94F834609132038FEB93E0FB
:1047F0000E942D356FE872E08FEB93E00E94F83451
:10480000609133038FEB93E00E942D350E94EA0103
:1048100041E06CE08FEB93E00E943F294091D70389
:104820005091D8036091D9037091DA0321E030E010
:104830008FEB93E00E94D7366AE871E08FEB93E04C
:104840000E942B350E9442316093CF047093D004B4
:104850008093D1049093D2041092100310920F030E
:10486000EE24E394F12C80910F0390911003892B97
:1048700071F58AE00E949732019789F48AE00E94DC
:1048800097320197D9F381E090E0909310038093E1
:104890000F0380ED97E00E94C0010E944B150E941B
:1048A00042310091CF041091D0042091D104309175
:1048B000D204005F184D2F4F3F4F061717072807E8
:1048C000390788F6F0921003E0920F03CCCF61E035
:1048D00082E00E9461328FEB93E00E9438290E94AF
:1048E000423160930F0470931004809311049093ED
:1048F00012046093A1047093A2048093A304909384
:10490000A40460939D0470939E0480939F049093ED
:10491000A0046093990470939A0480939B049093ED
:104920009C046093950470939604809397049093ED
:104930009804609335037093360380933703909304
:10494000380360938D0470938E0480938F0490934A
:1049500090040E94B10A809125039DEF980F933037
:1049600010F00C946D1C4EE251E061E08FEB93E08F
:104970000E943A2A46E251E062E08FEB93E00E9407
:104980003A2A4EE151E063E08FEB93E00E943A2A2D
:1049900046E151E064E08FEB93E00E943A2A4EE05A
:1049A00051E065E08FEB93E00E943A2A46E051E047
:1049B00066E08FEB93E00E943A2A81E090E09093CA
:1049C0009E0380939D0366E9C62E63E0D62E7EE8A3
:1049D000E72E73E0F72E06E813E06EE673E046E696
:1049E00053E02EE733E0E6E76E2EE3E07E2EA6E509
:1049F000B3E0FEE44F2EF3E05F2EEEE5AE2EE3E0F3
:104A0000BE2EF0E29F2EF60191926F01F701919276
:104A10007F01F80191928F01FB019192BF01FA0190
:104A20009192AF01F90191929F01F30191923F019F
:104A30009D92F20191922F01F50191925F010196F1
:104A40008930910501F760E472E087E493E00E9409
:104A50005D378FEB93E00E9438290E94CA1981E0EC
:104A600090E090939E0380939D030E944231609357
:104A70000F047093100480931104909312040E9409
:104A8000EC1AF3CF0E9442310091CB041091CC0478
:104A90002091CD043091CE04005D1A482F4F3F4F36
:104AA000601771078207930710F40C947F1C0C9415
:104AB0009C1C80E090E0089508952091FF0480916F
:104AC0000005821769F030E0F901EF5FFA4F80814D
:104AD0002F5F3F4F2F7333272093FF0490E00895FB
:104AE0008FEF9FEF0895CF93DF93DC01809148050E
:104AF00090914905892B09F45AC01C968C911C97FA
:104B0000883038F08E3040F0863148F4ECE6F0E042
:104B100008C0EDE6F0E005C0EBE6F0E002C0E0E042
:104B2000F0E05FB7F894109249051092480530976D
:104B3000E9F11C969C911C97963118F0C0E0D0E0EA
:104B400002C0C8E6D0E03881983068F021E09E309D
:104B500008F420E081E090E0022E01C0880F0A9462
:104B6000EAF7809501C08BEF8323888360811C96D0
:104B70004C91483040F481E090E0042E01C0880F51
:104B80000A94EAF710C0242F30E04E3018F4285071
:104B9000310902C02E50310981E090E0022E01C09F
:104BA000880F0A94EAF78095862380835FBFDF91A0
:104BB000CF9108950F931F93CF93DF93EC018091D2
:104BC000480590914905009711F00E94732560E017
:104BD0008C850E9428328C8590E0FC01E753FD4FC4
:104BE000E491E093FE04FC01E352FD4FE491F0E018
:104BF000EE0FFF1FEF50FD4F859194919F878E8799
:104C00008D8590E0FC01E753FD4FE491E093FD04B6
:104C1000FC01E352FD4FE491F0E0EE0FFF1FE55081
:104C2000FD4FA591B491B093FC04A093FB041097A1
:104C300029F08C919091FD04892B8C9361E08D85F6
:104C40000E9428328C85883040F08E3048F08631C2
:104C500008F079C00CE610E005C00DE610E002C0D7
:104C60000BE610E08FEF809344051092FF04109242
:104C70000005E881F9810284F385E02DCE010995D4
:104C8000888999898115FBE49F0709F044C08DE06C
:104C9000809347058EE48093450586E08093460522
:104CA0003FB7F894F80140812C85283030F481E03A
:104CB00001C0880F2A95EAF70DC0822F90E02E30B0
:104CC00010F4089701C00E9791E001C0990F8A95E2
:104CD000EAF7892F842BF80180838C85863118F0C0
:104CE000E0E0F0E002C0E8E6F0E02081883050F03B
:104CF00091E08E3008F490E081E001C0880F9A9531
:104D0000EAF701C084E0822B8083D0934905C093E9
:104D100048053FBF18C0811526E9920741F486E097
:104D2000809347058DE98093450584E0B7CF8038AF
:104D3000954209F0B5CF8AE18093470587E28093D9
:104D400045058AE0ABCFDF91CF911F910F91089578
:104D5000603825E2720741F06115EBE47E0721F02F
:104D60006115F6E97F0789F4FC012089318926174E
:104D7000370759F0718B608B2091480530914905B8
:104D80008217930711F40C94DA250895CF93DF93DB
:104D9000EC010E94A826CE01DF91CF910C94DA2578
:104DA0001092440581E080934205109241050895D8
:104DB000E0914805F09149053097C1F00288F389E8
:104DC000E02D309709F009944091000550E09A01D8
:104DD0002F5F3F4F2F7333279091FF04921731F0CD
:104DE000FA01EF5FFA4F80832093000508951F9327
:104DF000CF93DF93D6B5C091FE04C82360914405DC
:104E00006F3F29F4C1114CC00E94D02647C02091A9
:104E10004505809146058D0F90914305891B829F22
:104E200090011124232F33272695269599E0961B70
:104E3000492F50E011E04217530710F010E0922F75
:104E4000690F609344058091410520914205C1118D
:104E50000DC09150322F330F9F3F19F0822B232F1B
:104E6000F8CF80934105309342050BC09150092E35
:104E700001C0220F0A94EAF720934205822B809307
:104E80004105683058F0809141050E94D826C13014
:104E900011F01111B9CF8FEF80934405D0934305E2
:104EA000DF91CF911F910895CF93DF93EC01909103
:104EB00044059F3FA1F1EE85FF8580812091FE048E
:104EC000822369F186B52091450530914605830F0F
:104ED00030914305831B49E0491B829F90011124B7
:104EE000232F332726952695842F90E0821793074A
:104EF000B0F48091410590914205415018F0892B02
:104F0000990FFBCF80934105909342054093440550
:104F10000E94D82681E02A893B89232B09F080E072
:104F2000DF91CF910895FC012091000530E0809140
:104F3000FF04281B3109C901805C9F4F60E470E0C9
:104F40000E94DF3A811105C0F894CF010E945427D6
:104F5000789490E00895CF92DF92EF92FF920F93B2
:104F60001F93CF93DF93EC01D62E8091FB04909199
:104F7000FC04892B09F459C09C85983058F081E0D5
:104F80009E3008F480E091E0E92E01C0EE0C8A9595
:104F9000EAF702C064E0E62ECFB6F89406B580E0EA
:104FA000F12CF394E091FB04F091FC049091FD044A
:104FB0002AE0F21659F1882321F08081892B808321
:104FC00004C08081909598239083109147051630F6
:104FD00079F4F0FE0DC017E00BC08BB38E2169F0A1
:104FE0008BB38E298BBBEE85FF8580810E94F726CF
:104FF00086B5801B811788F304C0CE010E94542718
:10500000F7CF010F8D2D8170D694CBCF8081892B66
:105010008083CFBE86B5801B811720F4CE010E940D
:105020005427F8CF81E090E002C080E090E0DF916B
:10503000CF911F910F91FF90EF90DF90CF90089547
:105040001F920F920FB60F9211242F933F934F93FD
:105050005F936F937F938F939F93AF93BF93EF93E0
:10506000FF9383B10E94F726FF91EF91BF91AF911B
:105070009F918F917F916F915F914F913F912F9170
:105080000F900FBE0F901F9018951F920F920FB6A2
:105090000F9211242F933F934F935F936F937F93BE
:1050A0008F939F93AF93BF93EF93FF9386B10E942B
:1050B000F726FF91EF91BF91AF919F918F917F91D3
:1050C0006F915F914F913F912F910F900FBE0F9075
:1050D0001F9018951F920F920FB60F9211242F93C5
:1050E0003F934F935F936F937F938F939F93AF9370
:1050F000BF93EF93FF9389B10E94F726FF91EF9141
:10510000BF91AF919F918F917F916F915F914F91DF
:105110003F912F910F900FBE0F901F901895CF9336
:10512000DF93EC0160E08E810E94613281E090E0CB
:105130000E94993161E08E810E94613281E090E0AD
:105140000E94993160E08E810E94613284E690E095
:10515000DF91CF910C949931CF92DF92EF92FF9231
:105160000F931F93CF93DF937C01C0E0D0E0C62E56
:10517000D12C87010C0F1D1F61E0F80187810E946F
:105180002832B6010C2E02C0759567950A94E2F795
:105190006170F80187810E9461322196C430D10587
:1051A00041F7C701DF91CF911F910F91FF90EF90D1
:1051B000DF90CF900C948F28CF92DF92EF92FF92E6
:1051C0000F931F93CF93DF937C01C0E0D0E0C62EF6
:1051D000D12C87010C0F1D1F61E0F80187810E940F
:1051E0002832B6010C2E02C0759567950A94E2F735
:1051F0006170F80187810E9461322196C830D10523
:1052000041F7C701DF91CF911F910F91FF90EF9070
:10521000DF90CF900C948F281F93CF93DF93EC01F6
:10522000162F642F8C810E9461328D818F3F19F07F
:1052300060E00E9461328F85612F84FF06C0CE013D
:10524000DF91CF911F910C94DC2870E084E075957C
:1052500067958A95E1F7CE010E94AC28612FCE01B7
:10526000DF91CF911F910C94AC2840E00C940C2955
:1052700061E00E94352980ED97E00C94993144302B
:1052800008F043E0FC012389421710F04FEF420F72
:10529000FC01E40FF11D2489260F2068622F0C9475
:1052A0003529FC016089262F2460208B6C600C94CA
:1052B0003529CF93DF93EC01423018F08F85886059
:1052C0008F874B8B1C8A80E48D8B6E8B70E0605CCB
:1052D0007F4F6F8B222329F0413019F48F85846032
:1052E0008F8780E593EC0E94993160E08C810E9469
:1052F000613260E08E810E9461328D818F3F19F0B2
:1053000060E00E9461326F8564FD1DC063E0CE01E4
:105310000E94AC2884E991E10E94993163E0CE01BA
:105320000E94AC2884E991E10E94993163E0CE01AA
:105330000E94AC2886E990E00E94993162E0CE019B
:105340000E94AC2816C06062CE010E94352984E913
:1053500091E10E9499316F856062CE010E943529EA
:1053600086E990E00E9499316F856062CE010E94CB
:1053700035296F856062CE010E94352984E0888BD3
:10538000CE010E945129CE010E94382982E0898BEA
:1053900066E0CE01DF91CF910C9435296F927F9218
:1053A0008F92AF92CF92EF920F931F93CF93DF9391
:1053B000CDB7DEB73C01162F842F5D854E853F8526
:1053C0009889F301848325830683E782C086A186BA
:1053D0008286538744873587968761E00E9428320A
:1053E000F30185818F3F19F061E00E94283261E06E
:1053F000F30186810E942832112319F0F3011786E8
:1054000003C080E1F301878720E041E060E1C30150
:10541000DF91CF911F910F91EF90CF90AF908F9030
:105420007F906F900C9459298F92AF92CF92EF9208
:105430000F93DC0113961C921E921297E2EFF1E09B
:10544000ED93FC931F921F921F921F928C2CAE2CF7
:10545000C02EE22E042F2FEF462F61E00E94CE29AE
:105460000F900F900F900F900F91EF90CF90AF9003
:105470008F900895CF92DF92EF92FF920F931F9338
:10548000CF93DF9300D0CDB7DEB78C01677088E093
:10549000689FB00111246064C80149835A830E9447
:1054A00035294981C42E5A81D52EE12CF12CD60103
:1054B0006D916D01D801ED91FC910190F081E02D8D
:1054C000C8010995BFEFEB1AFB0AE8E0EE16F104FC
:1054D00071F70F900F90DF91CF911F910F91FF9077
:1054E000EF90DF90CF90089541E00E940C2981E079
:1054F00090E00895FC0110821182138212821482BE
:1055000015821682178210861286118613861486DB
:10551000158616861786118A108A128A138A148AAB
:10552000158A168A108E178A118E128E138E148E7B
:10553000158E12A213A214A215A216A217A210AAC7
:1055400011AA12AA13AA14AA15AA16AE17AEDC0144
:10555000AC5BBF4F1D921D921D921C921397189623
:105560001C9211961C92119716961D921D921D92D7
:105570001C9219971E961C9211961C9211971696C2
:105580001D921D921D921C9219971E961C921196A7
:105590001C92119716961D921D921D921C9219979E
:1055A0001E961C9211961C92119716961D921D9292
:1055B0001D921C9219971E961C9211961C92509641
:1055C00082E08C9311961C9211961C9211961C925B
:1055D000119611961C921E92129611961C921E9272
:1055E00012961D921D921D921C92139714961D9255
:1055F0001D921D921C92139714961D921D921D923E
:105600001C92139714961D921D921D921C92139733
:10561000EA57FF4F108208952FEB260F862F992708
:1056200087FD9095263010F4C7970895615666302F
:1056300018F4875591090895C0970895FF920F9324
:105640001F93CF93DF93EC01FF24F39488818D3275
:1056500011F0F12C01C02196CE010E94703D9B01FA
:10566000AC01A4E6B0E00E94583BFE014991242F12
:10567000332727FD3095205331092A303105A8F30F
:105680004E3241F52181332727FD309520533109D2
:105690002A303105F8F44AE0429F8001439F100D03
:1056A0001124222717FD2095322F600F711F821FB2
:1056B000931F0281112707FD1095005311090A302D
:1056C000110540F4222717FD2095322F600F711F1E
:1056D000821F931FFF2039F09095809570956195FA
:1056E0007F4F8F4F9F4FDF91CF911F910F91FF9071
:1056F00008952F923F924F925F926F927F928F9276
:105700009F92AF92BF92CF92DF92EF92FF920F9350
:105710001F93CF93DF93D82FC92F8B010E94703D29
:1057200024E630E040E050E00E94F33A49015A019B
:105730009B01AC0160E876E988E990E00E94CF3AED
:105740006B017C01F80191828082ED2FFC2F219169
:10575000822F992787FD9095C0970A97C0F32E3224
:1057600039F51F0180E8882E86E9982E88E9A82E51
:10577000B12C9AE0492E512C612C712CF101C19170
:105780001F01DD27C7FDD095E097CA30D10580F411
:10579000C501B401A30192010E94F33A49015A01E3
:1057A000DE010E94633BC60ED71EE81EF91EE6CF3F
:1057B000A5E0B0E0A70196010E94583B6F5F7F4FC4
:1057C0008F4F9F4F23E030E040E050E00E94F33ADB
:1057D000F80122833383448355831682DF91CF916E
:1057E0001F910F91FF90EF90DF90CF90BF90AF90FF
:1057F0009F908F907F906F905F904F903F902F90F1
:1058000008954F925F926F927F928F929F92AF9284
:10581000BF92CF92DF92EF92FF920F931F93CF939D
:10582000DF93CDB7DEB760970FB6F894DEBF0FBE3B
:10583000CDBF69837A838B839C83CA01B901270119
:105840003801A60195010E94753725E33AEF4EE82D
:105850005CE30E94F7396B017C010E945A3A6D8724
:105860007E878F87988BC701B6010E9440386D8371
:105870007E838F83988725E33AEF4EE85CE3698166
:105880007A818B819C810E94F7396B017C0125E331
:105890003AEF4EE85CE3C301B2010E94F7392B01F5
:1058A0003C01C701B6010E945A3A4B015C01C70195
:1058B000B6010E94403869837A838B839C83C3013D
:1058C000B2010E945A3A69877A878B879C87C30105
:1058D000B2010E9440386B017C0129853A854B85D5
:1058E0005C8569817A818B819C810E94F7392B01CB
:1058F0003C01A7019601C501B4010E94F7392D8131
:105900003E814F8158850E94F7399B01AC01C3014C
:10591000B2010E9475379B01AC010E94F7392B013F
:105920003C012D853E854F855889C701B6010E94EF
:10593000F7399B01AC010E94F7399B01AC01C3010F
:10594000B2010E9476370E94643A2B013C012985FE
:105950003A854B855C85C501B4010E94F7394B013E
:105960005C01A701960169817A818B819C810E94EB
:10597000F7392D813E814F8158850E94F7399B016F
:10598000AC01C501B4010E9476379B01AC01C30193
:10599000B2010E94E93726E73BE742EC5AE40E9455
:1059A000F73960960FB6F894DEBF0FBECDBFDF911A
:1059B000CF911F910F91FF90EF90DF90CF90BF900C
:1059C000AF909F908F907F906F905F904F900895D1
:1059D0004F925F926F927F928F929F92AF92BF92FF
:1059E000CF92DF92EF92FF920F931F93CF93DF93AB
:1059F000CDB7DEB72C970FB6F894DEBF0FBECDBF84
:105A000069837A838B839C83ED82FE820F83188760
:105A1000C601B5010E94753725E33AEF4EE85CE315
:105A20000E94F7392B013C0125E33AEF4EE85CE395
:105A300069817A818B819C810E94F7394B015C01DD
:105A400025E33AEF4EE85CE3C801B7010E94F7395D
:105A50006B017C01C301B2010E945A3A6D837E83BF
:105A60008F839887C701B6010E94403869837A8383
:105A70008B839C83C501B4010E945A3A69877A8757
:105A80008B879C87C301B2010E9440382B013C01E7
:105A900029813A814B815C8169857A858B859C85DA
:105AA0000E94F739A30192010E94F7392B013C01B2
:105AB000C501B4010E9440384B015C01C701B60129
:105AC0000E945A3A9B01AC01C501B4010E94F7390A
:105AD000A30192010E9475376B017C0129813A81F3
