:100000000C942A030C9452030C9452030C941E2D4E
:100010000C941E2D0C941E2D0C9452030C94520320
:100020000C9452030C9452030C9452030C945203FC
:100030000C9452030C9452030C9452030C945203EC
:100040000C94AF2E0C9452030C94BC310C94EE31F2
:100050000C9452030C9452030C9452030C945203CC
:100060000C94FE2A0C94520307634236B79BD8A720
:100070001A39685618AEBAAB558C1D3CB7CC5763CD
:10008000BD6DEDFD753EF6177231BF000000803F7B
:1000900008000000BE922449123EABAAAA2ABECD97
:1000A000CCCC4C3E00000080BEABAAAAAA3E000009
:1000B0000000BF000000803F000000000008417801
:1000C000D3BB4387D1133D190E3CC3BD4282AD2B38
:1000D0003E68EC8276BED98FE1A93E4C80EFFFBE30
:1000E00001C4FF7F3F00000000003C537461747541
:1000F000733A20004D41494E3A003E44524F3A0077
:100100002020202020202020003E202020202020F1
:1001100020200054657374204D61696E005465732E
:10012000742044726F677565003E45676774696D3A
:1001300065722048414C544544003C54657374201A
:10014000436F6D706C65746564003E544553542074
:10015000494E2050524F4752455353003C2A2A2AB9
:100160002A5741524E494E472A2A2A2A003E484FD2
:100170004C4420746F2054657374003C003E5461FD
:100180007020746F2045786974003C4465706C6F12
:1001900079205465737400446F6E27742053617620
:1001A000650053617665003C53617665204F70743D
:1001B000696F6E73003C4D61696E3A4F66662C350F
:1001C000302D32303030004261636B7570004E6FFD
:1001D00073652D4F766572004F4646003C44726F42
:1001E000677565003E506C65617365205761697481
:1001F0002020202020003C41524D494E472E2E2EDB
:100200002E202020202020004465706C6F79205320
:10021000657474696E6773003E4465706C6F792015
:1002200054657374003E5374617274206120466C8F
:1002300069676874003E4473702F43686720536594
:100240007474696E6773003E436865636B20537412
:1002500061747573003C4D61696E204D656E75006B
:100260003C45676774696D657220545253200041A4
:100270002F422F433D4368616E67652C20455343F1
:100280003D5361766500446576696365204E616D16
:10029000653A00494420436F646500467265710009
:1002A00046726571204368616E676500494420436A
:1002B0006F6465004672657120284374726C2D4628
:1002C00020746F206368616E67652900203C3530BB
:1002D0002D323030302062792035302C20303D4FA7
:1002E00046463E00416C74004D61696E00203C3111
:1002F0003D4E6F726D616C2C323D4261636B757067
:100300002C303D4F46463E0044726F677565003E97
:10031000436F64653A2020003C53454C462D5445BC
:100320005354204552524F5200426174743A004473
:10033000726F6775653A004D61696E3A002C4C44E6
:10034000412C4C6F77562C41706F6765652C4E2D94
:100350004F2C44726F6775652C4D61696E00542C8B
:10036000416C742C56656C6F632C46696C745F41EC
:100370006C742C4656656C6F6300542040204D61B0
:10038000696E3A2000416C742040204D61696E3ADC
:1003900020005420402044726F6775653A20004168
:1003A0006C7420402044726F6775653A20005420B9
:1003B00040204E2D4F3A2000416C742040204E2D9D
:1003C0004F3A200054204020556E6C6F636B3A20EA
:1003D00000416C74204020556E6C6F636B3A2000B6
:1003E00054696D652040204C44413A004C44413AE8
:1003F00020002066742F73656332004176672041C8
:100400006363656C2040204D61782056656C6F6396
:100410003A2000542040204D61782056656C6F636F
:100420003A20002066742F736563004D6178205672
:10043000656C6F633A20005420402041706F6765FF
:10044000653A200041706F6765653A2000466C6927
:100450006768742054696D653A20004C617374209C
:10046000466C696768742050686173653A20004281
:1004700065657020436F64653A20004261736520B2
:1004800054656D703A200041534C20416C742E3AF3
:10049000200053756D6D61727900466C69676874F0
:1004A0000045676774696D6572205452532000508F
:1004B0007265737320427574746F6E20746F20536D
:1004C0007461727400536176656420466C69676874
:1004D000742053756D6D617279004D617820566599
:1004E0006C6F632E0041706F6765650050616765D2
:1004F00000536176656420466C69676874205375A3
:100500006D6D61727900436F6D706C657465640028
:100510004D617374657220526573657400436C6538
:100520006172696E672050616765200041626F7279
:10053000746564004D6173746572205265736574EF
:1005400000486F6C6420425554544F4E20746F2005
:10055000436F6E6669726D00444F20594F552052AB
:1005600045414C4C592057414E5420544F20434C48
:1005700045415220414C4C204D454D4F52593F3F33
:100580003F004D6173746572205265736574004F4E
:100590007074696F6E733A412D422020202046729C
:1005A000657175656E63793A4620202053617665E2
:1005B0003A45534300466C69676874205365747408
:1005C000696E67730045676774696D657220545280
:1005D000532000466C696768742053657474696EB3
:1005E00067730045676774696D65722054525320C4
:1005F00000000000080002010000030407000000E2
:1006000000000000000102040810204080010204E4
:100610000810200102040810200404040404040447
:1006200004020202020202030303030303000000A8
:100630000023002600290000000000250028002BD0
:100640000000000000240027002A0000CF0C1C2A14
:100650001E32E20C11241FBECFEFD8E0DEBFCDBFAB
:1006600012E0A0E0B1E0E8EFFBE702C005900D92D8
:10067000AA35B107D9F725E0AAE5B2E001C01D927D
:10068000A93AB207E1F716E0C2E5D6E004C0229726
:10069000FE010E94853BCC34D107C9F70E9462322B
:1006A0000C94EF3D0C94000080ED93E00E94982D97
:1006B0008FEE93E00E94EF3485EF93E00C94EF34DB
:1006C0000C94C93D0C94D13DDC01ED91FC9101905D
:1006D000F081E02D0994DC01ED91FC910190F08115
:1006E000E02D099420E836EE45EC57E40E942136CF
:1006F00024E534ED42E45EE30E94D3379B01AC0174
:1007000060E070E080E89FE30E94B83520E03AE2C4
:100710004DE257E40E94703708951F93CF93DF9303
:10072000EC01162F672F0E946203612FCE01019604
:10073000DF91CF911F910C9462031F93CF93DF93AE
:10074000EC010E946003182FCE0101960E94600305
:10075000212F30E0322F2227A901480F511DCA0155
:10076000DF91CF911F910895CF93DF93EC0161E06A
:100770008DE00E941830BE01882777FD8095982F64
:100780000E94282F60E08DE0DF91CF910C9418300B
:100790000F931F93CF93DF93EC01009711F4CAE0FE
:1007A000D0E000E010E00C171D076CF48CE291E043
:1007B0000E94B4036CE271E080E090E00E94282F78
:1007C0000F5F1F4FF0CFDF91CF911F910F910895D1
:1007D00081E090E09093CB038093CA0384EF91E093
:1007E0009093C9038093C803EBE0F2E0AAE5B2E07E
:1007F00081918D9382E0EB31F807D1F710922203BB
:1008000010922103109214031092130310920C0300
:1008100010920B0310920E0310920D0308956BE1DA
:1008200070E088E095E00C9464030E940F0469E096
:1008300071E088E095E00C94E2320E940F046DE0D4
:1008400071E088E095E00C94E2328091C1029091D1
:10085000C202892B41F40E940F0461E171E088E03B
:1008600095E00C94E23288E095E00C94EB320E9423
:100870000F0465E171E088E095E00C94E232EF92BC
:10088000FF920F931F93CF93DF9300D000D000D03F
:10089000CDB7DEB77C018B018091C1029091C2027D
:1008A000019719F465EA71E032C00E940F0469E112
:1008B00071E088E095E00E94E2324AE0B701CE01A3
:1008C00001960E948B35BE016F5F7F4F88E095E0F7
:1008D0000E94D432CE0101960E94EF346BE171E0A8
:1008E00088E095E00E94E2324AE0B801CE0101962C
:1008F0000E948B35BE016F5F7F4F88E095E00E94BC
:10090000D432CE0101960E94EF346DE171E088E0AF
:1009100095E00E94E23226960FB6F894DEBF0FBE35
:10092000CDBFDF91CF911F910F91FF90EF90089570
:10093000CF93DF9361E08CE00E94183062E070E0BA
:1009400080E090E00E94282F6FE171E080ED93E05D
:100950000E94E2328AE00E944E30019751F4809169
:100960002703813019F461E271E005C067E171E0AD
:1009700002C068E571E080ED93E00E94E23289E018
:100980000E944E30019751F480912603813019F472
:100990006FE071E005C063E271E002C068E571E0FC
:1009A00080ED93E00E94E23265E271E080ED93E039
:1009B0000E94013367E271E080ED93E00E94E23231
:1009C00060915403709155038091560390915703A1
:1009D0000E9489364AE050E080ED93E00E94B633F1
:1009E0006DE271E080ED93E00E94013369E271E015
:1009F00080ED93E00E94E232CAE5D2E069911616DA
:100A000024F480ED93E00E94E43282E0CA36D807F5
:100A1000A9F769E271E080ED93E00E9401338091D3
:100A2000310381112FC08091920390919303A09183
:100A30009403B09195038856954CAF4FBF4F4091AA
:100A400096035091970360919803709199038417CE
:100A50009507A607B707B0F46BE271E080ED93E06D
:100A60000E9401338091960390919703A09198037F
:100A7000B09199038093920390939303A09394036E
:100A8000B093950380913103882351F080912E0318
:100A9000811106C06FE271E080ED93E00E940133A6
:100AA00080912E03882309F446C063E371E080ED52
:100AB00093E00E94E23220E030E44CE156E46091A1
:100AC00078037091790380917A0390917B030E945F
:100AD0001D3687FF06C065E371E080ED93E00E945C
:100AE000E23220E030E04AE754E46091780370910C
:100AF000790380917A0390917B030E941D3687FFD2
:100B000006C065E371E080ED93E00E94E23240911F
:100B100078035091790360917A0370917B0320E010
:100B200030E080ED93E00E94DB346DE271E080ED17
:100B300093E00E94013365E070E080E090E00E9465
:100B4000282F60E08CE0DF91CF910C9418300F9348
:100B50001F93CF93DF938091C7029091C802909327
:100B6000C6028093C5021092C8021092C702C0E06C
:100B7000D0E001E010E08BE00E944E30892B31F490
:100B80001093C8020093C702C8ECD0E084E390E061
:100B90000E94502F2196C83CD1056CF38091C5026C
:100BA0009091C602019761F48091C7029091C802AA
:100BB000892B31F4DF91CF911F910F910C94980400
:100BC000DF91CF911F910F9108950E94250462E05B
:100BD00070E081E090E00E943F0461EA74E088E008
:100BE00095E00E94AF326FEE73E088E095E00E94DE
:100BF000D4320C941D042F923F924F925F926F92C9
:100C00007F928F929F92AF92BF92CF92DF92EF929C
:100C1000FF920F931F93CF93DF93CDB7DEB76A9701
:100C20000FB6F894DEBF0FBECDBF84E190E0909385
:100C30008D0380938C0382E390E090938B038093E9
:100C40008A038091FF02909100032091010330916B
:100C500002038217930714F48C599F4F821B930B46
:100C6000019622E3289FA001299F500D1124662799
:100C700057FD6095762F4093F5025093F6026093EE
:100C8000F7027093F802E0910303F091040380915E
:100C90008003909181039E878D87A0916003B0911E
:100CA0006103B88BAF878091F1029091F2029A8B29
:100CB000898BA091E502B091E602BA83A983809165
:100CC000CD029091CE029C8B8B8BA091D302B091E0
:100CD000D402BE8BAD8B00918A0310918B03B0912F
:100CE0008203BF83809183038887209084033090A0
:100CF0008503909162039D83A0916303AE8340902E
:100D0000640350906503B091ED02BA8F8091EE02BA
:100D10008F8B9091EF02988FA091F002A98F609035
:100D2000E7027090E8028090E9029090EA028091D8
:100D30008C0390918D039C838B83A090CF02B09005
:100D4000D002C090D102D090D202E090D502F090B3
:100D5000D6029091D7029987A091D802AA8721E85C
:100D600030E0E217F3070CF44FC0C801AA2797FD43
:100D7000A095BA2F840F951FA61FB71F4D855E85BE
:100D80002417350719F48F8398871D014F855889DB
:100D90002417350719F48D839E832D0149895A89BB
:100DA0002417350769F412161306D4F449815A81C1
:100DB0008A8F9F8BA88FB98F2417350789F408C0B5
:100DC00049815A812417350759F41216130644F441
:100DD0003C014D0142E050E05C834B8304EF11E0A5
:100DE0004B895C892417350711F45C016D014D892D
:100DF0005E892417350719F47C01A987BA872F5F0C
:100E00003F4FAC01BD01ADCF4093860350938703A4
:100E1000609388037093890310938B0300938A0374
:100E20005F8150938203888580938303209284039B
:100E3000309285039D8190936203AE81A0936303FA
:100E40004092640350926503BA8DB093ED02EF892E
:100E5000E093EE02F88DF093EF02498D4093F0029B
:100E60006092E7027092E8028092E9029092EA02B0
:100E70008B819C8190938D0380938C03A092CF02F1
:100E8000B092D002C092D102D092D202E092D502AA
:100E9000F092D60299859093D702AA85A093D802A2
:100EA0006A960FB6F894DEBF0FBECDBFDF91CF912B
:100EB0001F910F91FF90EF90DF90CF90BF90AF9078
:100EC0009F908F907F906F905F904F903F902F906A
:100ED0000895CF92DF92EF92FF92CF93DF9310921B
:100EE000230382309105F1F4C090AA03D090AB03A4
:100EF000E090AC03F090AD0320E030E44CE156E428
:100F0000C701B6010E941D3687FD0AC020E038EEF9
:100F10004DEF57E4C701B6010E946C371816DCF597
:100F200082E037C083309105A1F483E080932303EE
:100F3000C0EDD7E08BE00E944E30892B19F410925F
:100F4000230329C084EF91E00E94502F219791F74D
:100F500022C08430910571F489E00E944E302091C6
:100F6000C8033091C90312161306ACF4892B99F407
:100F700084E00FC0059779F48AE00E944E302091FA
:100F8000CA033091CB03121613062CF4892B19F4E3
:100F900085E08093230380912303DF91CF91FF901D
:100FA000EF90DF90CF90089588EC90E00E94B4031A
:100FB00068E077E080E090E00E94282FF5CFCF93A3
:100FC000DF9360E170E089E090E00E943F0468E018
:100FD00073E088E095E00E94AF326DEE72E088E049
:100FE00095E00E94AF326AE070E089E090E00E94F4
:100FF0003F046091CA037091CB034AE050E088E05F
:1010000095E00E94BE3360E170E08BE090E00E94CA
:101010003F0468EE72E088E095E00E94AF3268E538
:1010200071E088E095E00E94E23264EE72E088E0D0
:1010300095E00E94AF326CEC72E088E095E00E948F
:10104000AF326AE070E08BE090E00E943F04609174
:10105000C8037091C9034AE050E088E095E00E941F
:10106000BE3360E170E08DE090E00E943F0464EBED
:1010700072E088E095E00E94AF326AE070E08DE0B7
:1010800090E00E943F0460916C0270916D024AE012
:1010900050E088E095E00E94BE3360E170E08EE0B1
:1010A00090E00E943F046CEA72E088E095E00E94C4
:1010B000AF326AE070E08EE090E00E943F04609101
:1010C0006A0270916B024AE050E088E095E00E946D
:1010D000BE3362E070E083E090E00E943F04CAE526
:1010E000D2E06991611107C068E571E088E095E0A0
:1010F0000E94E23204C088E095E00E94E43282E07F
:10110000CA36D80771F78091C1029091C202892B2B
:1011100041F462E370E088E190E0DF91CF910C94BC
:101120003F04DF91CF91089584E00E944E30892BD7
:1011300029F484E690E00E94B403F6CF0895CF939B
:10114000DF9382E00E94992F64EF71E080E090E0ED
:101150000E94282F82E00E94992FEC0164EF71E039
:1011600080E090E00E94282FBE01882777FD8095BF
:10117000982F0E94BC362DE039E94AEC5CE30E94CE
:1011800070376093CC037093CD038093CE0390931C
:10119000CF03DF91CF9108958091A6039091A7038B
:1011A000A091A803B091A90380935C0390935D0381
:1011B000A0935E03B0935F03809358039093590309
:1011C000A0935A03B0935B030895CF92DF92EF92FE
:1011D000FF92C0905C03D0905D03E0905E03F090BE
:1011E0005F03C0925803D0925903E0925A03F092E1
:1011F0005B03A70196016091A6037091A7038091FC
:10120000A8039091A9030E94B8352DEC3CEC4CE466
:101210005EE30E9470379B01AC01C701B6010E94DA
:10122000B93560935C0370935D0380935E03909384
:101230005F03FF90EF90DF90CF900895009719F42F
:1012400068ED71E00AC08130910519F46EEC71E02F
:1012500004C0029731F467EC71E080ED93E00C94E8
:10126000AF320895009731F467E371E080ED93E0C9
:101270000C94E2324AE050E0BC0180ED93E00C9423
:10128000B633009719F462EA71E004C0019731F4B3
:1012900067E971E080ED93E00C94AF320895009718
:1012A00019F46DE171E004C0019731F463E171E07C
:1012B00080ED93E00C94AF3208956AEF70E080ED1A
:1012C00093E00E94AF328091C9029091CA020197C7
:1012D00019F46BE371E002C060E471E080ED93E02B
:1012E0000C94E23264EF70E080ED93E00E94AF3244
:1012F0008091CB029091CC02019719F465E471E0E2
:1013000002C067E371E080ED93E00C94E2326AEE94
:1013100070E080ED93E00E94AF324091CC03509199
:10132000CD036091CE037091CF0321E030E080EDDA
:1013300093E00E94DB3468E471E080ED93E00C946C
:10134000E2322F923F924F925F926F927F928F92F2
:101350009F92AF92BF92CF92DF92EF92FF920F9344
:101360001F93CF93DF93CDB7DEB7E4970FB6F89412
:10137000DEBF0FBECDBFA091C403B091C50320E076
:101380003FEF4FEF5FEF0E9491392B013C018091BD
:10139000B2039091B303A091B403B091B503480E8A
:1013A000591E6A1E7B1E2091C6033091C70340E080
:1013B00050E0C301B2010E94FD39F22E032F142F19
:1013C000D52EE62EB72FF82FE92FA0E00E94633B21
:1013D00084F42150310940485F4F6F4F7F4F8F4F4A
:1013E0009F4FF22E032F142FD52EE62EB72FF82F56
:1013F000E92F2F2D302F412F5D2D6E2D7B2F8F2F1D
:101400009E2F07E10E94273B2053384F4F4F5F4FDD
:101410006F4F7F4F8F4F9F4F2D873E874F87588B42
:10142000698B7A8B8B8B9C8B2D853E854F8558895C
:1014300029873A874B875C87E091C203F091C30309
:101440008090BE039090BF03940140E050E060E0C4
:1014500070E080E090E001E10E940E3B49014F8B7B
:10146000352E262E79838D8B9E8B9F0140E050E098
:10147000C301B2010E94FD3979018A01D62EB72F2E
:10148000F82FE92FA0E00E94633B4CF4AFE30E94E9
:101490004E3B79018A01D62EB72FF82FE92F9701FD
:1014A000A8016D2D7B2F8F2F9E2F06E00E94273BDA
:1014B00059016A017B018C0194014F89532D622DE2
:1014C00079818D899E890E94453B2DA33EA34FA320
:1014D00058A769A77AA78BA79CA7E091C003F091B2
:1014E000C1038090BC039090BD03940140E050E0A4
:1014F00060E070E080E090E000E10E940E3B490176
:101500004F8B352E262E79838D8B9E8B9F0140E04D
:1015100050E0C301B2010E94FD3979018A01D62E43
:10152000B72FF82FE92FA0E00E94633B4CF4AFE700
:101530000E944E3B79018A01D62EB72FF82FE92F52
:101540009701A8016D2D7B2F8F2F9E2F07E00E9402
:10155000273B59016A017B018C0194014F89532D6E
:10156000622D79818D899E890E94453B2DA73EA7DA
:101570004FA758AB69AB7AAB8BAB9CAB89859A858F
:10158000AB85BC85803D9740A105B1050CF0FAC044
:10159000C301B201A30192010E94FD3959016A0100
:1015A0007B01E82F192F02E00E940E3B0E2F0E94B4
:1015B0005A3BA12CB12CC12CD12CF2E0EF2EF12CF6
:1015C00000E010E00E94393A29833A834B835C8320
:1015D0006D837E838F83988749845A846B847C844F
:1015E000770C4408542C320129853A854B855C855B
:1015F000642D742D842D942D205D374041095109AF
:10160000610971098109910959016A017B018C0104
:101610000E94A439B22FA32F342E252EFB01982E21
:10162000892E05E00E940E3BAB2EBA2EC32CD22C85
:101630007F01092D182D0E945A3B01E00E940E3BAC
:10164000092D0E945A3B04E00E94273B2D8B3E8BC4
:101650004F8B588F698F7A8F8B8F9C8F2B2F3A2FC0
:10166000432D522DBF01892D982D0E940E3B092D2F
:101670000E945A3B01E00E940E3B092D0E945A3BFA
:1016800004E00E94273B2D8F3E8F4F8F58A369A304
:101690007AA38BA39CA329853A854B855C8524324C
:1016A0003A4F4F4F5F4F0CF0A1C029853A854B85CB
:1016B0005C85642D742D842D942D24523A4F4F4F08
:1016C0005F4F6F4F7F4F8F4F9F4F59016A017B01D3
:1016D0008C010E94A439B22FA32F742E652E562E92
:1016E000E72F982E892E04E00E940E3BAB2EBA2ED7
:1016F000C72CD62CE52CFE2E092D182D0E94453B1B
:1017000059016A017B018C012D893E894F89588DD1
:10171000698D7A8D8B8D9C8D0E94453B2D8B3E8BE8
:101720004F8B588F698F7A8F8B8F9C8F2B2F3A2FEF
:10173000472D562D652D7E2F892D982D03E00E9473
:101740000E3BAB2EBA2EC72CD62CE52CFE2E092D27
:10175000182D0E94453B59016A017B018C012D8D9A
:101760003E8D4F8D58A169A17AA18BA19CA10E94A9
:10177000453B2D8F3E8F4F8F58A369A37AA38BA330
:101780009CA334C0C301B201A30192010E94FD39A0
:1017900059016A017B01E82F192F02E00E940E3BDC
:1017A0000E2F0E94453BA12CB12CC12CD12CE0E482
:1017B000EE2EF12C00E010E00E94393A29833A83A2
:1017C0004B835C836D837E838F8398871D8E1E8EF3
:1017D0001F8E18A219A21AA21BA21CA21D8A1E8A61
:1017E0001F8A188E198E1A8E1B8E1C8E8091B6033E
:1017F0009091B703A091B803B091B9031C012D01DA
:101800002DA53EA54FA558A969A97AA98BA99CA980
:10181000AD8CBE8CCF8CD8A0E9A0FAA00BA11CA1E6
:101820000E945A3BB22FE32ED42E152F062FF72EEF
:10183000F82FE92FA0E00E94633B84F42150310986
:10184000404E5F4F6F4F7F4F8F4F9F4FB22FE32E12
:10185000D42E152F062FF72EF82FE92F2B2F3E2DE4
:101860004D2D512F602F7F2D8F2F9E2F05E10E9430
:10187000273B59016A017B018C019101A20160E0C3
:1018800070E080E090E00E94A439B22FA32F742E64
:10189000652E562EE72F982E892E2DA13EA14FA101
:1018A00058A569A57AA58BA59CA5AD88BE88CF88CB
:1018B000D88CE98CFA8C0B8D1C8D0E945A3B5901F7
:1018C0006A017B018C012B2F3A2F472D562D652D58
:1018D0007E2F892D982D0E945A3BF22E032F142F14
:1018E000D52EE62EB72FF82FE92FA0E00E94633BFC
:1018F00084F4215030484F4F5F4F6F4F7F4F8F4FD1
:101900009F4FF22E032F142FD52EE62EB72FF82F30
:10191000E92F2F2D302F412F5D2D6E2D7B2F8F2FF7
:101920009E2F0FE00E94273BB901CA010E94BC36DE
:101930006093AA037093AB038093AC039093AD03C1
:101940006D857E858F85988929813A814B815C815F
:10195000621B730B840B950B0E94BC366093AE0325
:101960007093AF038093B0039093B103E4960FB6E6
:10197000F894DEBF0FBECDBFDF91CF911F910F91C5
:10198000FF90EF90DF90CF90BF90AF909F908F909F
:101990007F906F905F904F903F902F9008956AE4F2
:1019A00071E085EF93E00E945D356EE471E08FEEAB
:1019B00093E00E945D3520E043E062E080ED93E03B
:1019C0000C94F12D0C9454032F923F924F925F92FE
:1019D0006F927F928F929F92AF92BF92CF92DF923F
:1019E000EF92FF920F931F93CF93DF933C015B0124
:1019F0004A016901B701C8010E943F041092C30265
:101A000026EFA60124031001259F300C11248AE043
:101A10008C9D20018D9D500C1124E3018091C30207
:101A20008D3009F450C088E095E00E947730181698
:101A30001906CCF788E095E00E9490308093C302AD
:101A40008B3219F4CC0DDD1D17C08D3219F4CC1971
:101A5000DD0912C08C3341F4CE01820D931D8A152D
:101A60009B057CF5CE012DC08E3331F4CE01840D63
:101A7000951D8816990624F48C169D063CF001C02D
:101A8000EC01CA15DB051CF4E40101C0E501B70156
:101A9000C8010E943F0464E571E088E095E00E947F
:101AA000E232B701C8010E943F044AE050E0BE01A3
:101AB00088E095E00E94B633B701C8010E943F0458
:101AC000ADCFEC01D9CF62E370E088E190E00E94F5
:101AD0003F04CE01DF91CF911F910F91FF90EF90C6
:101AE000DF90CF90BF90AF909F908F907F906F903E
:101AF0005F904F903F902F900895EF92FF920F9339
:101B00001F93CF93DF937A010E943F040AE512E00E
:101B1000E801CA55D240F80161918F01662329F08E
:101B200088E095E00E94E432F3CF1092C4028091E5
:101B3000C4028D3079F088E095E00E947730181665
:101B40001906CCF788E095E00E9490308093C4029B
:101B50008D3061F461E070E080E090E0DF91CF9142
:101B60001F910F91FF90EF900C94282F883011F067
:101B70008F37A9F41C161D065CF421970E943704C8
:101B800068E571E088E095E00E94E2320E94370447
:101B9000FE01E65AFD4F10821092C402CCCF90EEA7
:101BA000980F9F3540F6CE15DF050CF6682F88E0BC
:101BB00095E00E94F530FE01E65AFD4F8091C40287
:101BC00080832196B4CFE0916C02F0916D02A091D8
:101BD0006A02B0916B0220E930ED43E050E00E94D0
:101BE0009C396B017C01DF0120E432E44FE050E0DE
:101BF0000E949C39C60ED71EE81EF91E4701AA2472
:101C0000BB24EE24FF2460E085E00E94183068ECDD
:101C100070E080E090E00E94282F6AEA80ED93E077
:101C20000E944C2C6AEF80ED93E00E944C2C62EDF8
:101C300080ED93E00E944C2C692D772780ED93E096
:101C40000E944C2C682D80ED93E00E944C2C6D2D51
:101C5000772780ED93E00E944C2C6C2D80ED93E073
:101C60000E944C2C64E670E080E090E00E94282FF7
:101C700060916C0270916D028AE790E00E948D0382
:101C800060916A0270916B028CE790E00E948D0374
:101C900088E095E00E94EB326AE571E088E095E02B
:101CA0000E94013380ED97E00E94B4030E94D407A4
:101CB00061E08CE00E94183068EE73E080E090E014
:101CC0000E94282F80ED93E00E94D02C68EE73E0F4
:101CD00080E090E00E94282F0E94E5056EE170E010
:101CE00081E090E00E943F0460EA72E088E095E0C5
:101CF0000E94AF3261E070E087E090E00E943F0414
:101D000069E671E088E095E00E94E2326BE070E005
:101D100087E090E00E943F046BE972E088E095E084
:101D20000E94AF3265E070E087E090E00E943F04DF
:101D300060916C0270916D024AE050E088E095E09D
:101D40000E94B63361E070E089E090E00E943F04B9
:101D50006BE671E088E095E00E94E2326BE070E0B3
:101D600089E090E00E943F0463E972E088E095E03A
:101D70000E94AF3265E070E089E090E00E943F048D
:101D800060916A0270916B024AE050E088E095E051
:101D90000E94B63361E070E08BE090E00E943F0467
:101DA0006DE671E088E095E00E94E2326BE070E061
:101DB0008BE090E00E943F0466E872E088E095E0E6
:101DC0000E94AF3269E170E08BE090E00E943F0436
:101DD000CAE5D2E06991611107C068E571E088E069
:101DE00095E00E94E23204C088E095E00E94E4326F
:101DF00082E0CA36D80771F76EE170E088E190E0C2
:101E00000E943F046FE672E088E095E00E94AF32E6
:101E100088E095E00E947730892BD1F388E095E047
:101E20000E949030C82F282F332727FD30952F7D13
:101E3000332721343105B1F435E0E32EF12C07E0EE
:101E400010E022E030E04DE953E06DE873E080916E
:101E50006C0290916D020E94E40C90936D0280934D
:101E60006C0224C022343105B1F425E0E22EF12CBD
:101E700009E010E021E030E047E050E060E070E091
:101E800080916A0290916B020E94E40C90936B0225
:101E900080936A020BC02334310591F440E150E095
:101EA00069E170E08BE090E00E947D0D6DE170E0F3
:101EB00088E190E00E943F04CB3109F0A9CF08C02F
:101EC0008B3131F02835310509F0A2CF0E94D407BB
:101ED0000AE512E0C4E5D0E0F80161918F01CE017E
:101EE0000E94D13D2196C436D105B1F70E94E30D81
:101EF000CF92DF92EF92FF920E94F92E6B017C014C
:101F000028E9C20E2AE3D21EE11CF11C80ED93E009
:101F10000E94B82C892B51F080ED93E00E942B2C6D
:101F20008B32B9F08D30A9F08E3799F061E070E016
:101F300080E090E00E94282F0E94F92EC616D70656
:101F4000E806F90618F767E080ED93E00E944C2C54
:101F5000D3CFFF90EF90DF90CF9008956CED71E0BC
:101F600080ED93E00E94AF326DE271E080ED93E08E
:101F70000E94E23280917202909173020E941E09C7
:101F80000E94780F8B3211F16FE671E080ED93E0E3
:101F90000E94E23280917202909173020E941E09A7
:101FA0000E94780F8B3299F48091720290917302A3
:101FB0000196833091052CF4909373028093720202
:101FC000E3CF1092730210927202DECF8BE208957B
:101FD00065EB71E080ED93E00E94AF326DE271E05D
:101FE00080ED93E00E94E232809170029091710244
:101FF0000E9432090E94780F8B3219F16FE671E06E
:1020000080ED93E00E94E232809170029091710223
:102010000E9432090E94780F8B32A1F480917002E5
:1020200090917102C296813D27E092072CF4909323
:10203000710280937002E2CF1092710210927002CE
:10204000DDCF8BE2089510926F0210926E0267EA64
:1020500071E080ED93E00E94AF326FE671E080EDB9
:1020600093E00E94E23280916E0290916F020E9492
:1020700041090E94780F8B3291F480916E02909109
:102080006F020196823091052CF490936F02809339
:102090006E02E3CF10926F0210926E02DECF0895AF
:1020A0000F931F93CF93DF936AE871E080ED93E085
:1020B0000E94AF326DE771E080ED93E00E94AF3295
:1020C0000E94780F8B3209F473C06FE671E080EDE7
:1020D00093E00E94E23280E090E00E944F09C0E06D
:1020E000D0E00E94780F8B3261F481E0C8276FE660
:1020F00071E080ED93E00E94E232CE010E944F0930
:10210000F0CF6BE771E080ED93E00E94AF32CE013B
:102110000E944F096DE671E080ED93E00E94AF32BE
:102120000E94780F8E3769F76CE571E080ED93E0DF
:102130000E94AF326AE471E080ED93E00E94AF321A
:1021400001E210E067E080ED93E00E944C2C8CE20D
:1021500091E00E94B40301501109A1F761E0CD2B79
:10216000D9F488E00E94183060ED77E080E090E0DC
:102170000E94282F60E088E00E9418306AE371E036
:1021800080ED93E00E94AF3269E271E080ED93E070
:102190000E94AF320E94D40787E00E94183060EDA1
:1021A00077E080E090E00E94282F60E087E0E4CFB5
:1021B000DF91CF911F910F910895EF92FF920F93AE
:1021C0001F93CF93DF937C010E949F088AE00E94B7
:1021D0004E309093CA028093C90289E00E944E302B
:1021E0009093CC028093CB020E9487090E945D09E4
:1021F0000E94720968EE73E080E090E00E94282F50
:10220000E114F10441F4DF91CF911F910F91FF9000
:10221000EF900C94780F8091CA039091CB0318161D
:10222000190664F431E020E08091C9029091CA025D
:10223000892B09F030E0032F122F02C000E010E0DC
:102240008091C8039091C9031816190664F431E00F
:1022500020E08091CB029091CC02892B09F030E0F4
:10226000C32FD22F02C0C0E0D0E00115110569F4E0
:102270002097A1F40E94780F8E37B9F7DF91CF91A4
:102280001F910F91FF90EF90089569E071E080ED4C
:1022900093E00E94AF32219751F402C00E945D0981
:1022A00060E071E080ED93E00E94AF3202C00E94D6
:1022B000720967E080ED93E00E944C2C67E080EDAE
:1022C00093E00E944C2C68E572E080E090E00E9470
:1022D000282F7ACFEF92FF920F931F93CF93DF9324
:1022E0008B01E82EFF24E7FCF094B7018BEF93E01D
:1022F0000E94042A612F70E08BEF93E00E946B0331
:10230000B80177278BEF93E00E946B038BEF93E08C
:102310000E94192A42E050E0B7018BEF93E00E943F
:10232000F7298BEF93E00E9449290297D4F38BEFB2
:1023300093E00E945129182F8BEF93E00E945129BE
:10234000D12F20E0C22F9E01282BC901DF91CF9110
:102350001F910F91FF90EF9008956091110370917C
:10236000120377FD0C949D03762F66277295707F7C
:10237000680F791F80E50C946A110F931F93CF9318
:10238000DF932091110330911203309310032093B7
:102390000F03909312038093110382E090E00E9458
:1023A000AD1190938103809380038AE090E00E94B6
:1023B000AD119093E6028093E5028EE090E00E94DA
:1023C000AD119093CE028093CD0280E190E00E9407
:1023D000AD11909300038093FF0282E190E00E9490
:1023E000AD11909302038093010386E190E00E9477
:1023F000AD11909304038093030388E190E00E9461
:10240000AD1190936B0380936A038AE190E00E9480
:10241000AD1190936103809360038EE190E00E9480
:10242000AD119093D4028093D30286E290E00E9493
:10243000AD119093F2028093F1028EE290E00E943F
:10244000AD119093F4028093F30280E390E00E9438
:10245000AD11909341038093400384E190E00E948A
:10246000AD1190933F0380933E0384E390E00E947C
:10247000AD119093FA028093F9020AE512E0C4E5E7
:10248000D0E0CE010E946003F80181938F01219674
:10249000C436D105B1F786E190E00E94AD1190936A
:1024A00004038093030384E490E00E94AD119093B1
:1024B000CB038093CA038AE490E00E94AD1190930D
:1024C000C9038093C80382E390E00E94AD1190930A
:1024D00022038093210380910F0390911003909326
:1024E000120380931103DF91CF911F910F910895F3
:1024F0008091130390911403EBE7F2E081939193A1
:10250000019710F48FE090E022E0EB39F207B1F789
:102510000E94E5056EE170E081E090E00E943F04DA
:1025200061EF74E088E095E00E94AF3265E070E012
:1025300083E090E00E943F046CEE74E088E095E058
:102540000E94AF326FE070E083E090E00E943F04B1
:1025500065EE74E088E095E00E94AF3269E170E0DA
:1025600083E090E00E943F046AED74E088E095E02B
:102570000E94AF321092770210927602809176021A
:1025800090917702803191050CF092C061E070E08B
:1025900004960E943F0460917602709177026F5B0F
:1025A0007F4F88E095E00E946403809176029091CD
:1025B0007702FC01EE0FFF1FE558FD4F20813181AE
:1025C00020930B0330930C03422F4295407F1092CF
:1025D0000D0340930E03209311033093120365E023
:1025E00070E004960E943F0460910B0370910C030D
:1025F0004AE050E088E095E00E94B6338091760290
:10260000909177026FE070E004960E943F0482E0B0
:1026100090E00E94AD11805C9F4F880F991F0E942F
:10262000AD11880F991FAC01662757FD6095762F75
:102630002AE030E088E095E00E946C3380917602D9
:102640009091770269E170E004960E943F0488E16E
:1026500090E00E94AD114AE050E0BC0188E095E0B6
:102660000E94B633809176029091770263E270E027
:1026700004960E943F048091760290917702019621
:10268000909377028093760279CF88E095E00E945C
:1026900090308093C402EFEBE80FE031A0F0815658
:1026A000803170F067E070E088E095E00E9464039C
:1026B00088E095E00E94773018161906CCF7E5CF30
:1026C000E03208F0E82FF0E0EE0FFF1FE558FD4F75
:1026D00080819181909379028093780208958F92FE
:1026E0009F92AF92BF92CF92DF92EF92FF92CF93E1
:1026F000DF93EC01805C9F4F880F991F0E94AD1102
:102700006C01EE24D7FCE094FE2CCC0CDD1CEE1CFE
:10271000FF1C82E390E0909318038093170380914D
:10272000E5029091E602C817D9077CF01816190641
:1027300064F482E090E090938D0380938C0384EFA7
:1027400091E09093180380931703C701B6010E948C
:10275000BC366093A6037093A7038093A80390935D
:10276000A9038091700390917103A0917203B091BD
:102770007303A7019601281B390B4A0B5B0BA09131
:102780008C03B0918D030E949C390E94BC366093EB
:102790006C0370936D0380936E0390936F030E949C
:1027A000E508209158033091590340915A03509104
:1027B0005B0360915C0370915D0380915E03909177
:1027C0005F030E94B8354B015C0160918C037091EE
:1027D0008D03882777FD8095982F0E94BC369B013A
:1027E000AC01C501B4010E9470376093500370932F
:1027F0005103809352039093530340918603509169
:10280000870360918803709189032AE030E088E0B3
:1028100095E00E946C3362E771E088E095E00E94E9
:10282000E2322AE030E0B701A60188E095E00E949C
:102830006C3362E771E088E095E00E94E2324091FB
:102840006C0350916D0360916E0370916F0322E0F1
:1028500030E088E095E00E94DB3462E771E088E0D8
:1028600095E00E94E23240915C0350915D036091DB
:102870005E0370915F0322E030E088E095E00E9403
:10288000DB3462E771E088E095E00E94E23240913B
:10289000500350915103609152037091530322E011
:1028A00030E088E095E00E94DB3462E771E088E088
:1028B00095E00E94E232C038D10549F42AE030E0C8
:1028C000B701A60188E095E00E946C3308C04AE099
:1028D00050E060E070E088E095E00E94B63362E787
:1028E00071E088E095E00E94E2328091F1029091DF
:1028F000F202C817D90749F42AE030E0B701A6016F
:1029000088E095E00E946C3308C04AE050E060E047
:1029100070E088E095E00E94B63362E771E088E0FD
:1029200095E00E94E2328091800390918103C81764
:10293000D90749F42AE030E0B701A60188E095E024
:102940000E946C3308C04AE050E060E070E088E02C
:1029500095E00E94B63362E771E088E095E00E945E
:10296000E2328091E5029091E602C817D90749F456
:102970002AE030E0B701A60188E095E00E946C33C0
:1029800008C04AE050E060E070E088E095E00E9416
:10299000B63362E771E088E095E00E94E232809110
:1029A000D3029091D402C817D90749F42AE030E045
:1029B000B701A60188E095E00E946C3308C04AE0A8
:1029C00050E060E070E088E095E00E94B63362E796
:1029D00071E088E095E00E94E2328091CD02909112
:1029E000CE02C817D90749F42AE030E0B701A601A2
:1029F00088E095E00E946C3308C04AE050E060E057
:102A000070E088E095E00E94B6336DE472E088E003
:102A100095E00E94013340911703509118036627F7
:102A200057FD6095762F8091860390918703A09142
:102A30008803B0918903840F951FA61FB71F809349
:102A4000860390938703A0938803B0938903C09271
:102A50007003D0927103E0927203F0927303DF91DE
:102A6000CF91FF90EF90DF90CF90BF90AF909F906D
:102A70008F900895CF93DF9310928603109287036F
:102A8000109288031092890384E190E090938D0363
:102A900080938C036EE573E088E095E00E94AF328E
:102AA0006DE373E088E095E00E94AF326DE472E080
:102AB00088E095E00E9401331092190310921A03E6
:102AC00010921B0310921C031092A6031092A703EE
:102AD0001092A8031092A9030E94CC08C091010390
:102AE000D09102038091FF02909100038C179D0703
:102AF000CCF4C233D1052CF4CE010E946F13219681
:102B0000F8CFC0E0D0E08091FF02909100038C17D5
:102B10009D072CF0CE010E946F132196F4CFC0E8E0
:102B2000D0E00CC08091FF02909100038C179D07AC
:102B3000B4F3CE010E946F132196F4CF809103036A
:102B4000909104038C179D072CF0CE010E946F1307
:102B50002196F4CFDF91CF9108950F931F93CF93D8
:102B6000DF9300D0CDB7DEB78B01682F8BEF93E0FA
:102B70004A8359830E94FA29612F70E08BEF93E01A
:102B80000E946B03B80177278BEF93E00E946B03E1
:102B90005981652F8BEF93E00E94A1294A81642F10
:102BA0008BEF93E00E94A1298BEF93E00F900F90A1
:102BB000DF91CF911F910F910C94192A209111034D
:102BC0003091120337FD0C948D03322F222732955A
:102BD000307F280F391FAB01B90180E50E94AD1588
:102BE00064E070E080E090E00C94282FCF93DF93B6
:102BF00040917C0350917D0360917E0370917F032F
:102C0000EC01C05CDF4FCC0FDD1FCF3F8FE0D8075A
:102C100070F4CB01BA0122E030E040E050E00E94C5
:102C20007239B901CE01DF91CF910C94DE15DF919D
:102C3000CF91089560E070E082E390E00E94DE159D
:102C40006091C8037091C9038AE490E00E94DE1588
:102C50006091CA037091CB0384E490E00C94DE157C
:102C6000CF92DF92EF92FF920F931F93CF93DF9358
:102C700061E08CE00E94183064E670E080E090E053
:102C80000E94282F80ED93E00E94D02C0E94F92E04
:102C90006B017C0188ECC80E8FEAD81EE11CF11C88
:102CA0008CE291E00E94B40364E771E080ED93E070
:102CB0000E94E23264EF71E080E090E00E94282FF1
:102CC0000E94F92EC616D706E806F90608F412C1C6
:102CD00080ED93E00E94B82C892B11F380ED93E0F6
:102CE0000E942B2C809375028332D1F668EE73E03C
:102CF00080E090E00E94282F60E672E080ED93E093
:102D00000E94AF3265EF73E080ED93E00E94D43211
:102D10006DE271E080ED93E00E94E232C4E5D0E024
:102D2000CE010E946003682F80ED93E00E944C2C3E
:102D30002196C436D105A1F70E94780F80937402C2
:102D40008E3729F0E12CF12CCFEFDFEF23C081E0AB
:102D500090E00E94DD1081E090E0CEC082E0E816B5
:102D6000F1041CF5E114F10431F467E472E080ED44
:102D700093E00E94AF320E94780F809374028B32EE
:102D800029F59FEFE91AF90A84E0E816F10414F036
:102D9000E12CF12C65E572E080ED93E00E94AF320A
:102DA00091E0E916F104D1F60BC092E0E916F104C6
:102DB00051F083E0E816F104F1F668E172E0D7CF54
:102DC00065E372E0D4CF65E272E0D1CF91E0E9161D
:102DD000F104A9F044F4E114F104E1F680E090E09C
:102DE0000E94DD10D7CF92E0E916F10409F447C044
:102DF00083E0E816F10471F60E945010C9CF68E034
:102E000072E080ED93E00E94AF32C0907202D090E9
:102E100073020E94AE0F80937402009170021091B1
:102E200071020E94E80F809374020E942310809325
:102E3000740280916E0290916F02019749F4109391
:102E4000710200937002D0927302C0927202A2CFFC
:102E5000D0931203C0931103809172029091730278
:102E60009093CB038093CA0380917002909171027A
:102E70009093C9038093C8030E941A168BCF8E3794
:102E800009F088CF68EE73E080E090E00E94282F80
:102E900067E080ED93E00E944C2C67E080ED93E0CA
:102EA0000E944C2C67E080ED93E00E944C2C67E080
:102EB00080ED93E00E944C2C67E080ED93E00E944F
:102EC0004C2C68EE73E080E090E00E94282F81E0B7
:102ED00090E00E94DD1066EF71E080ED93E00E94CB
:102EE000AF3264EE71E080ED93E00E94AF3282E099
:102EF00090E002C089E090E0DF91CF911F910F91A7
:102F0000FF90EF90DF90CF900895CF93DF932091C3
:102F10001103309112033093100320930F03909309
:102F2000120380931103C0E0D0E060E070E0CE01B6
:102F30000E94DE1564E070E080E090E00E94282F9F
:102F40002296C11580E1D80781F780910F039091F7
:102F500010039093120380931103DF91CF91089592
:102F60000E94E5056EE170E081E090E00E943F0480
:102F700062E875E088E095E00E94AF326FE070E0B3
:102F80008DE090E00E943F0468E575E088E095E000
:102F90000E94AF3269E170E087E190E00E943F0457
:102FA00061E475E088E095E00E94AF32CAE0D0E0CD
:102FB00088E095E00E94773018161906ECF488E056
:102FC00095E00E9490308093C4028B31A9F46EE1A9
:102FD00070E082E190E00E943F0464E375E088E0E5
:102FE00095E00E94AF3268E571E088E095E00E94CC
:102FF000E2326CE275E078C084E00E944E300197C6
:10300000B9F668EE73E080E090E00E94282F2197E7
:1030100079F688E893E10E94B403C0E0D0E06FE065
:1030200070E082E190E00E943F046DE175E088E08D
:1030300095E00E94AF324AE050E0BE0188E095E0A2
:103040000E94B633CE010E9485172196C031D1056A
:1030500031F7109214031092130310920E03109282
:103060000D0310920C0310920B030E94E8038FEFE4
:103070009FEF90931203809311030E941A161092EF
:103080001203109211030E941A160BE012E0C4E51D
:10309000D0E0F80161918F01CE010E946203219678
:1030A000C436D105B1F760E083E690E00E94620388
:1030B00060911303709114038EE790E00E948D03DA
:1030C0006EE170E083E190E00E943F0460E175E012
:1030D00088E095E00E94AF3268E571E088E095E015
:1030E0000E94E23266E075E088E095E00E94AF322F
:1030F0000E94D4078F929F92AF92BF92CF92DF929D
:10310000EF92FF92C0904203D0904303E0904403BB
:10311000F0904503A70196016091A6037091A70363
:103120008091A8039091A9030E94B8352DEC3CEC46
:103130004CE45EE30E9470379B01AC01C701B6010D
:103140000E94B93560934203709343038093440314
:10315000909345030E9489366B017C017093410373
:103160006093400380903A0390903B03A0903C030F
:10317000B0903D03A50194016091AE037091AF033F
:103180008091B0039091B1030E94B8352DEC3CECD6
:103190004CE45EE30E9470379B01AC01C501B401B1
:1031A0000E94B93560933A0370933B0380933C03CC
:1031B00090933D030E94893670933F0360933E03D2
:1031C000B60180E390E00E94DE1560913E037091AD
:1031D0003F0384E190E0FF90EF90DF90CF90BF90AD
:1031E000AF909F908F900C94DE15CF92DF92EF926C
:1031F000FF92CF93DF931092220310922103C1E03C
:10320000D0E0C12CD12C7601C394CE010E94690775
:103210008823A1F08091210390912203B701A60198
:103220000C2E04C0440F551F661F771F0A94D2F757
:10323000842B952B90932203809321032196C830F1
:10324000D10519F7609121037091220382E390E088
:103250000E94DE1580912103909122031816190611
:10326000A4F5C1E0D0E080912103909122030C2EBF
:1032700002C0959587950A94E2F780FF21C0CE01A0
:103280000E94C80368E173E080ED93E00E94AF32D2
:103290006FE073E080ED93E00E94AF324AE050E0CF
:1032A000BE0180ED93E00E94B63367E080ED93E0CD
:1032B0000E944C2C68EE73E080E090E00E94282F82
:1032C0002196C830D1057CF2CCCF80E090E0DF9130
:1032D000CF91FF90EF90DF90CF900895BC018EE2E8
:1032E00090E00C94DE15FF920F931F93CF93DF9322
:1032F000F62E082F112707FD1095B8018BEF93E0EC
:103300000E94042A6F2D8BEF93E00E94A1298BEF7E
:1033100093E00E94192A42E050E0B8018BEF93E05D
:103320000E94F7298BEF93E00E9449290297D4F37A
:103330008BEF93E00E945129182F8BEF93E00E94AE
:103340005129D12F20E0C22F9E01282BC901DF91E6
:10335000CF911F910F91FF9008951F93CF93DF930B
:1033600066E770E08BEF93E00E94042A6EE170E064
:103370008BEF93E00E946B038BEF93E00E94192A7E
:103380006AE070E080E090E00E94282FCCEBD3E070
:1033900012EA612F86E70E947319899399931E5F41
:1033A0001E3AB9F7DF91CF911F9108950F931F93A4
:1033B000CF93DF9300D000D0CDB7DEB78B01682F5D
:1033C0008BEF93E02C833B834A8359830E94FA2935
:1033D000612F70E08BEF93E00E946B03B8017727B9
:1033E0008BEF93E00E946B035981652F8BEF93E085
:1033F0000E94A1294A81642F8BEF93E00E94A129AA
:103400003B81632F8BEF93E00E94A1292C81622FD7
:103410008BEF93E00E94A1298BEF93E00F900F9028
:103420000F900F90DF91CF911F910F910C94192A5B
:103430009A0140911103E0E0F0E0F42FF295F07F63
:103440008E0F9F1FAB01BC0180E50E94D61964E07E
:1034500070E080E090E00C94282FCF92DF92EF9202
:10346000FF92CF93F82E66E770E08BEF93E00E9417
:10347000042A6F2D8BEF93E00E94A1298BEF93E03C
:103480000E94192A65E070E080E090E00E94282FF9
:1034900066E770E08BEF93E00E94042A60E08BEF18
:1034A00093E00E94A1298BEF93E00E94192A66E71E
:1034B00070E08BEF93E00E94042A43E050E066E75F
:1034C00070E08BEF93E00E94F7298BEF93E00E946E
:1034D00049290397D4F38BEF93E00E945129C82E1A
:1034E0008BEF93E00E945129C82F8BEF93E00E944D
:1034F0005129D12CE12CF12C4C2F50E060E070E0F0
:103500007601DD24CC24762F652F542F4427C40E5A
:10351000D51EE61EF71EC80ED11CE11CF11C8BEF58
:1035200093E00E94192AC701B601CF91FF90EF9056
:10353000DF90CF90089586E40E942D1A6093B60321
:103540007093B7038093B8039093B90386E50E9404
:103550002D1A6093B2037093B3038093B4039093D6
:10356000B503089561E08DE00E9418300E949B1A17
:103570000E94A1096091AA037091AB038091AC03F2
:103580009091AD030E94720321EA38EF41E550E4C7
:103590000E9470376093A6037093A7038093A803DB
:1035A0009093A90320914203309143034091440337
:1035B000509145030E94B83560937403709375036E
:1035C00080937603909377030E94893660937C03FF
:1035D00070937D0380937E0390937F0360E08DE082
:1035E0000C9418300E94F92E6093A2037093A303E9
:1035F0008093A4039093A5030E94B21A0E94CC0862
:103600006091AE037091AF038091B0039091B103CC
:1036100060933A0370933B0380933C0390933D0384
:103620000E94893670933F0360933E0310922203F9
:1036300010922103109278031092790310927A036A
:1036400010927B036091A6037091A7038091A80359
:103650009091A903609342037093430380934403C2
:10366000909345030E948936709341036093400311
:1036700010923603109237031092380310923903D8
:1036800010923203109233031092340310923503D8
:103690001092F4021092F3021092E4021092E302EC
:1036A00080911303909114030196909314038093D7
:1036B0001303409724F01092140310921303809187
:1036C00013039091140380930B0390930C03282F02
:1036D0002295207F10920D0320930E0380931103F7
:1036E000909312030E9485170E941A160E947A185E
:1036F00060911303709114038EE790E00E948D0394
:103700000E94F51866E771E080ED93E00E94E232D6
:1037100068EB7BE080E090E00E94282F80ED93E052
:103720000E94D02C60E08CE00E94183088E893E181
:103730000E94B403109231031092300310922F03B1
:1037400010922E0310922D0310922C0310922B0333
:1037500010922A0310922803109229031092270333
:10376000109226038091CA039091CB03029719F41B
:1037700080ED97E002C088EE93E09093EC02809396
:10378000EB0210924F0310924E0310924D031092D1
:103790004C0310924B0310924A0384E190E0909303
:1037A0008D0380938C0382E390E090938B0380934E
:1037B0008A0381E090E00E946E191092FC02109240
:1037C000FB020E94F92E6093A2037093A3038093DF
:1037D000A4039093A5031092920310929303109266
:1037E000940310929503109200031092FF0210921E
:1037F000040310920303C0E88C2E912CC4E1D0E0A6
:1038000002E310E084EFA82EBB24B39422242A9470
:103810003324339480912A038111FAC40E94F92E33
:103820006093960370939703809398039093990302
:1038300080918A0390918B03AA2797FDA095BA2FB8
:103840004091A2035091A3036091A4037091A5033A
:10385000840F951FA61FB71F4091960350919703A1
:103860006091980370919903481759076A077B077D
:10387000A8F20E94B21A0E94E508209142033091FA
:103880004303409144035091450360915C03709160
:103890005D0380915E0390915F030E94B8356B01D8
:1038A0007C01609354037093550380935603909367
:1038B00057038091960390919703A0919803B0913C
:1038C00099038093A2039093A303A093A403B093BE
:1038D000A503809131038111B8C020E030E048E4B5
:1038E00053E4C701B6010E946C37181694F4309265
:1038F0003103C701B6010E9489367093FA026093C2
:10390000F90284E390E00E94DE1590920403809215
:10391000030380913103811198C08091030390913A
:1039200004030E94F61580917C0390917D03A09181
:103930007E03B0917F032091FF0230910003069730
:10394000A105B105A4F430930203209301038091F3
:10395000960390919703A0919803B0919903809357
:103960009E0390939F03A093A003B093A103309371
:10397000FE022093FD022F5F3F4F2038310529F0D2
:10398000309300032093FF0204C0109200031092B2
:10399000FF028091FF0290910003909304038093B3
:1039A00003030E94A7058091460390914703A091CD
:1039B0004803B09149038854944FAF4FBF4F409193
:1039C000960350919703609198037091990384171F
:1039D0009507A607B70790F40E947A18809196037E
:1039E00090919703A0919803B09199038093460317
:1039F00090934703A0934803B09349030E94F92E84
:103A00004090A2035090A3036090A4037090A5037C
:103A100022E0421A51086108710820918A0330910E
:103A20008B036901EE24D7FCE094FE2C4C0C5D1C4A
:103A30006E1C7F1C641575058605970508F0EECE93
:103A400081E090E00E94B403D9CF809131038130AE
:103A500009F04AC08091960390919703A091980332
:103A6000B09199038093A2039093A303A093A4031E
:103A7000B093A503D0938D03C0938C0310938B0355
:103A800000938A0340910103509102036091FD026B
:103A90007091FE0280E190E00E94181A82E090E0AE
:103AA0000E946E1980917C0390917D03A0917E030A
:103AB000B0917F038093360390933703A09338032C
:103AC000B09339038091740390917503A0917603AC
:103AD000B09177038093320390933303A093340320
:103AE000B0933503209231030E94A705C090740360
:103AF000D0907503E0907603F090770360918C038B
:103B000070918D03882777FD8095982F0E94BC3691
:103B10002B013C0120913203309133034091340357
:103B200050913503C701B6010E94B835A301920137
:103B30000E94703760936C0370936D0380936E03E3
:103B400090936F03209158033091590340915A0389
:103B500050915B0360915C0370915D0380915E0303
:103B600090915F030E94B835A30192010E947037C3
:103B700060935003709351038093520390935303C7
:103B800080912E0381118AC02091780330917903AE
:103B900040917A0350917B03C701B6010E946C37B4
:103BA0001816B4F5C0927803D0927903E0927A03A4
:103BB000F0927B038091960390919703A0919803D4
:103BC000B091990380938E0390938F03A0939003F9
:103BD000B0939103609103037091040382E090E03D
:103BE0000E94DE1520E030E040E05FE36091780362
:103BF0007091790380917A0390917B030E947037D2
:103C00006093DF027093E0028093E1029093E202FE
:103C1000209178033091790340917A0350917B038E
:103C2000609174037091750380917603909177038E
:103C30000E941D3687FF2EC0609150037091510382
:103C400080915203909153030E94893661577E4FB1
:103C50006F317340F8F480912C0390912D030196FD
:103C600090932D0380932C0320918C0330918D032E
:103C7000281739079CF480912F0381110FC03092CF
:103C80002F03609103037091040386E290E00E9489
:103C9000DE1504C010922D0310922C038091300386
:103CA000811132C0C0905003D0905103E090520374
:103CB000F0905303209166033091670340916803AD
:103CC00050916903C701B6010E946C371816E4F4DD
:103CD000C0926603D0926703E0926803F092690392
:103CE000C701B6010E94893670936B0360936A0323
:103CF0004091030350910403509361034093600388
:103D000088E190E00E94181A8091FB029091FC02D9
:103D1000892B31F480910303909104030E94F615DE
:103D200080913103882309F46BC0809130038111A5
:103D300067C060915003709151038091520390913C
:103D400053030E9489369B0177FF04C02227332743
:103D5000261B370B2536310554F480914E03909184
:103D60004F03019690934F0380934E0307C0109228
:103D70004F0310924E03293C310554F480914C03BB
:103D800090914D03019690934D0380934C0307C08F
:103D900010924D0310924C032139314054F480911C
:103DA0004A0390914B03019690934B0380934A03EF
:103DB00004C010924B0310924A0380914E039091DD
:103DC0004F0344976CF480914C0390914D03889776
:103DD0003CF480914A0390914B038035910584F027
:103DE00030922F03309230036091030370910403EB
:103DF00086E290E00E94DE1585E090E00E946E1958
:103E000080912E03811151C080912F0381110CC02C
:103E100020912C0330912D0380918C0390918D0380
:103E2000821793070CF041C040919603509197037D
:103E3000609198037091990380918E0390918F0304
:103E4000A0919003B091910388519C4FAF4FBF4F09
:103E5000481759076A077B0740F130922E034093B9
:103E60009A0350939B0360939C0370939D0360910E
:103E70000303709104038AE090E00E94DE1586E05F
:103E800090E00E946E1982E090E090938D03809301
:103E90008C03B0928B03A0928A038091C803809315
:103EA00024038091CA038093250380917C03909121
:103EB0007D03A0917E03B0917F038093360390939E
:103EC0003703A0933803B093390380917403909122
:103ED0007503A0917603B09177038093320390939A
:103EE0003303A0933403B0933503F0902E0321E005
:103EF000F2126BC180912503882309F472C080916E
:103F0000EB029091EC02AA2797FDA095BA2F409161
:103F10008E0350918F036091900370919103840FF1
:103F2000951FA61FB71F409196035091970360916C
:103F3000980370919903481759076A077B0708F49B
:103F400050C08091290381112BC0F09229038091E8
:103F5000CA039091CB031816190634F461E088E087
:103F60000E941830F0922703809196039091970356
:103F7000A0919803B09199038093D5029093D602B3
:103F8000A093D702B093D802609103037091040309
:103F90008EE190E00E94DE1587E090E00E946E19AD
:103FA000809129038130E9F48091D5029091D60265
:103FB000A091D702B091D8028053984FAF4FBF4F16
:103FC00040919603509197036091980370919903E3
:103FD00084179507A607B70720F460E088E00E94E1
:103FE000183080912403882309F466C02091C80307
:103FF0003091C903C901AA2797FDA095BA2F409116
:104000007C0350917D0360917E0370917F0348177C
:1040100059076A077B0724F02115310509F04CC0C8
:1040200080912803811127C03092280312161306AD
:1040300034F461E087E00E941830309226038091CA
:10404000960390919703A0919803B0919903809360
:10405000CF029093D002A093D102B093D20260918C
:104060000303709104038EE090E00E94DE1588E067
:1040700090E00E946E19809128038130E9F48091CC
:10408000CF029091D002A091D102B091D202805380
:10409000984FAF4FBF4F4091960350919703609157
:1040A00098037091990384179507A607B70720F422
:1040B00060E087E00E941830C0905403D090550310
:1040C000E0905603F090570320E030E040E05FE3DB
:1040D000609178037091790380917A0390917B03CA
:1040E0000E9470379B01AC01C701B6010E941D36CA
:1040F00087FF6BC02091DF023091E0024091E10226
:104100005091E202C701B6010E94B8350E9489367B
:10411000CB010A96409196035091970360919803C2
:10412000709199034597A8F58091E3029091E4027C
:10413000009741F44093DB025093DC026093DD0270
:104140007093DE0201969093E4028093E3028091E3
:10415000DB029091DC02A091DD02B091DE02885773
:104160009C4EAF4FBF4F481759076A077B0768F14E
:1041700030922A0381E090E09093FC028093FB024E
:104180006091D9027091DA0286E190E00E94DE151A
:104190001CC01092E4021092E3024093DB025093A1
:1041A000DC026093DD027093DE02C092DF02D092E7
:1041B000E002E092E102F092E2028091030390912A
:1041C00004039093DA028093D9028091FB029091CC
:1041D000FC02892B09F01ECB60910303709104034C
:1041E00086E190E00E94DE15809103039091040324
:1041F00001969093040380930303803C97400CF452
:1042000009CB81E090E09093FC028093FB02FECA10
:1042100089E090E00E946E1960E088E00E9418300A
:1042200060E087E00E94183060E08CE00E94183067
:104230008091780390917903A0917A03B0917B03E8
:104240008093540390935503A0935603B093570360
:104250000E94A705FDCFCF93DF930E94B21A61E4BD
:1042600070E082E090E00E943F0468E771E088E03F
:1042700095E00E94E23220E030E048EC52E46091A8
:10428000AE037091AF038091B0039091B1030E948F
:10429000213626E636E646EE5FE30E94703720E0E0
:1042A00030E040E052E40E94B935AB01BC0122E0AD
:1042B00030E088E095E00E94DB3461E470E083E068
:1042C00090E00E943F046BE771E088E095E00E9477
:1042D000E2324091AA035091AB036091AC0370911C
:1042E000AD0322E030E088E095E00E94DB3461E439
:1042F00070E084E090E00E943F046EE771E088E0A7
:1043000095E00E94E2324091A6035091A70360918C
:10431000A8037091A90322E030E088E095E00E94B4
:10432000DB3489E00E944E30EC0161E470E085E00E
:1043300090E00E943F0467E373E088E095E00E940C
:10434000AF324AE050E0BE0188E095E00E94B6330B
:104350008AE00E944E30EC0161E470E086E090E07B
:104360000E943F046FE273E088E095E00E94AF3264
:104370004AE050E0BE0188E095E00E94B6330E941A
:104380009F0861E470E087E090E00E943F0469E2EA
:1043900073E088E095E00E94AF324091CC035091E9
:1043A000CD036091CE037091CF0322E030E088E02E
:1043B00095E00E94DB3462E370E088E190E0DF91F9
:1043C000CF910C943F048091C1029091C202892B3D
:1043D000E9F50E94250462E070E081E090E00E942F
:1043E0003F0463EE75E088E095E00E94AF326FEE27
:1043F00073E088E095E00E94D43263E270E081E0EF
:1044000090E00E943F040E94150463ED75E088E08F
:1044100095E00E94AF320E941D0465E070E089E0E3
:1044200090E00E943F0469E671E088E095E00E9418
:10443000E23265E070E08BE090E00E943F046BE6C2
:1044400071E088E095E00E94E23218C065EC75E00A
:1044500088E095E00E94AF326FEE73E088E095E06F
:104460000E94D43265E571E088E095E00E94E23276
:1044700065EB75E088E095E00E94EF320E94DF076F
:104480008091C1029091C202892BA1F40E942B213C
:1044900065E070E088E190E00E943F046FE875E01D
:1044A00088E095E00E94AF3262E370E088E190E03E
:1044B0000C943F040895CF92DF92EF92FF9288E030
:1044C00095E00E94EB326AE974E088E095E00E9492
:1044D000AF3268E571E088E095E00E94E23262E97F
:1044E00074E088E095E00E94AF326FE771E088E009
:1044F00095E00E94013388E095E00E94EB3281E074
:1045000090E09093C2028093C1020E94E3210E9436
:10451000FB0588E095E00E94EB3267E874E088E0F4
:1045200095E00E94AF3260914003709141034AE0F0
:1045300050E088E095E00E94B63361E871E088E0E1
:1045400095E00E9401336BE774E088E095E00E94FB
:10455000AF3260913E0370913F03882777FD8095CD
:10456000982F0E94BC3660933A0370933B0380936C
:104570003C0390933D0320E030E048EC52E40E947D
:10458000213626E636E646EE5FE30E94703720E0ED
:1045900030E040E052E40E94B935AB01BC0121E0BB
:1045A00030E088E095E00E94DB3465E871E088E067
:1045B00095E00E9401336FE674E088E095E00E9488
:1045C000AF3260912103709122034AE050E088E00D
:1045D00095E00E94BE336BE574E088E095E00E94B0
:1045E000AF326091F3027091F4024AE050E088E04B
:1045F00095E00E94BE336DE474E088E095E00E948F
:10460000AF32609186037091870380918803909107
:1046100089030E94BC3620E030E04AE754E40E945F
:104620002136AB01BC0123E030E088E095E00E9438
:10463000DB3488E095E00E94EB3264E474E088E0CB
:1046400095E00E94AF3282E090E00E94AD11805C64
:104650009F4F880F991F0E94AD11880F991FAC01C1
:10466000662757FD6095762F2AE030E088E095E0D8
:104670000E946C3361E871E088E095E00E940133AC
:1046800067E374E088E095E00E94AF3260918203B6
:104690007091830380918403909185030E94BA36C0
:1046A00020E030E04AE754E40E942136AB01BC012F
:1046B00023E030E088E095E00E94DB3488E095E07C
:1046C0000E94EB326BE274E088E095E00E94AF322A
:1046D00060916A0370916B034AE050E088E095E0D6
:1046E0000E94B63363E274E088E095E00E94EF3206
:1046F00063E174E088E095E00E94AF32609162036C
:104700007091630380916403909165030E94BA36AF
:1047100020E030E04AE754E40E942136AB01BC01BE
:1047200023E030E088E095E00E94DB3488E095E00B
:104730000E94EB326BEF73E088E095E00E94AF32AD
:1047400060916A0370916B03882777FD8095982F9D
:104750000E94BC3620E030E04AE754E40E94703703
:104760006B017C016091620370916303809164032B
:10477000909165030E94BA369B01AC01C701B60156
:104780000E9421366B017C0122E030E0AB01BC01CC
:1047900088E095E00E94DB3462EF73E088E095E00A
:1047A0000E94EF3268E871E088E095E00E94E23212
:1047B0002DEC3CEC40E052E4C701B6010E942136EA
:1047C000AB01BC0122E030E088E095E00E94DD34DE
:1047D00088E095E00E94EB326CEE73E088E095E0B3
:1047E0000E94AF326091F9027091FA024AE050E003
:1047F00088E095E00E94EA3361E871E088E095E0A6
:104800000E94013360EE73E088E095E00E94AF32D1
:104810006091F5027091F6028091F7029091F80292
:104820000E94BA3620E030E04AE754E40E94213684
:10483000AB01BC0123E030E088E095E00E94DB346E
:1048400088E095E00E94EB3286E290E00E94AD1194
:10485000805C9F4F880F991F0E94AD11880F991F90
:104860006C01EE24D7FCE094FE2C1C141D041E04E5
:104870001F04B4F561ED73E088E095E00E94AF326B
:104880002AE030E0B701A60188E095E00E946C3391
:1048900061E871E088E095E00E94013364EC73E028
:1048A00088E095E00E94AF326091ED027091EE02D7
:1048B0008091EF029091F0020E94BA3620E030E041
:1048C0004AE754E40E942136AB01BC0123E030E00A
:1048D00088E095E00E94DB3488E095E00E94EB32AE
:1048E00068EB73E088E095E00E94AF328AE090E0E8
:1048F0000E94AD11805C9F4F880F991F0E94AD11DF
:10490000880F991FAC01662757FD6095762F2AE026
:1049100030E088E095E00E946C3361E871E088E067
:1049200095E00E9401336EEA73E088E095E00E9412
:10493000AF326091E7027091E8028091E9029091B4
:10494000EA020E94BA3620E030E04AE754E40E94CE
:104950002136AB01BC0123E030E088E095E00E9405
:10496000DB3488E095E00E94EB328091CA0390919D
:10497000CB03181619060CF045C06FE973E088E008
:1049800095E00E94AF328EE190E00E94AD11805C14
:104990009F4F880F991F0E94AD11880F991FAC017E
:1049A000662757FD6095762F2AE030E088E095E095
:1049B0000E946C3361E871E088E095E00E94013369
:1049C00062E973E088E095E00E94AF326091D50221
:1049D0007091D6028091D7029091D8020E94BA3687
:1049E00020E030E04AE754E40E942136AB01BC01EC
:1049F00023E030E088E095E00E94DB3488E095E039
:104A00000E94EB328091C8039091C90318161906D1
:104A10000CF049C065E873E088E095E00E94AF3291
:104A20008EE090E00E94AD11805C9F4F880F991F2F
:104A30000E94AD11880F991FAC01662757FD609544
:104A4000762F2AE030E088E095E00E946C3361E840
:104A500071E088E095E00E9401336AE773E088E046
:104A600095E00E94AF326091CF027091D0028091A8
:104A7000D1029091D2020E94BA3620E030E04AE79B
:104A800054E40E942136AB01BC0123E030E088E011
:104A900095E00E94DB3488E095E0FF90EF90DF9096
:104AA000CF900C94EB32FF90EF90DF90CF90089571
:104AB000EC010E94BD11C0931303D09314038C2FFB
:104AC0008295807F10920D0380930E03C093110393
:104AD000D09312030E94E5056EE170E081E090E062
:104AE0000E943F0465EC74E088E095E00E94AF32DC
:104AF0006FE070E08EE090E00E943F046FEA74E0A7
:104B000088E095E00E94AF3284E00E944E30019729
:104B1000D9F764EF71E080E090E00E94282F84E0F4
:104B20000E944E30019781F70E945B2284E00E9430
:104B30004E300197D9F764EF71E080E090E00E9479
:104B4000282F84E00E944E30019781F70E943A1589
:104B50000E94D4070E94781280917A028B3131F042
:104B600080917802909179020E94582581E090E02E
:104B70000C94502FDF92EF92FF920F931F93CF93DD
:104B8000DF931092C4020E94F92E6093BD027093CD
:104B9000BE028093BF029093C0021092BC0210929A
:104BA000BB028BE1D82EC1E0D0E08091C4028B31F2
:104BB00009F491C088E095E00E9477301816190634
:104BC0007CF488E095E00E9490308093C402D093FA
:104BD000BC02C093BB028D3051F50E942B2178C0DE
:104BE0008091BB029091BC02892B21F70E94F92E83
:104BF0000091BD021091BE022091BF023091C0020F
:104C0000005D1A482F4F3F4F06171707280739072F
:104C100018F4D092C4025CC084E690E00E94B40311
:104C200068EC70E080E090E00E94282FC3CF8B31C9
:104C300029F488EB9BE00E94B4034AC08F3321F42F
:104C40000E94AA250E94D407863011F40E94580EB3
:104C5000893111F40E94B0178234F9F018F48134CC
:104C600031F036C0813619F08236B9F031C00AE031
:104C7000E02EF12C09E010E021E030E042E050E0CD
:104C800060E070E08091CA039091CB030E94E40C35
:104C90009093CB038093CA0315C01AE0E12EF12C48
:104CA0000BE010E022E330E040ED57E060E070E020
:104CB0008091C8039091C9030E94E40C9093C903AA
:104CC0008093C80362E370E088E190E00E943F04B3
:104CD0000E94DF076ACFDF91CF911F910F91FF9064
:104CE000EF90DF9008951092C2021092C1020E94CC
:104CF000E3210E94BA258091BB029091BC02181654
:104D0000190654F48FEF9FEF9093120380931103D1
:104D10000E941A160E94D4070895DF92EF92FF9224
:104D20000F931F93CF93DF93CDB7DEB76F970FB677
:104D3000F894DEBF0FBECDBF1092C2021092C10226
:104D400026E040E855E260E070E088E095E00E94EF
:104D50005A3161E08DE00E94DF2F61E085E00E9422
:104D6000DF2F60E084E00E94DF2F60E089E00E9496
:104D7000DF2F61E087E00E94DF2F61E088E00E9482
:104D8000DF2F60E08AE00E94DF2F61E08CE00E946C
:104D9000DF2F60E08BE00E94DF2F60E08DE00E945B
:104DA000183061E085E00E94183060E088E00E94E1
:104DB000183060E087E00E94183061E08CE00E94CB
:104DC000183010922503109224036CE871E088E0FB
:104DD00095E00E9401338BEF93E00E94E02965E9A2
:104DE00071E088E095E00E9401336CE971E088E0B1
:104DF00095E00E9401330E94AD1969EA71E088E0F4
:104E000095E00E94013366EB71E088E095E00E9436
:104E100001330E94B21A63EC71E088E095E00E94D1
:104E2000013360ED71E088E095E00E94013360910C
:104E300006017091070184E690E00E948D036FEDFA
:104E400071E088E095E00E94013369EE71E088E04E
:104E500095E00E9401338AE790E00E949D039093C1
:104E60006D0280936C028CE790E00E949D0390930A
:104E70006B0280936A0266EF71E088E095E00E9421
:104E8000E23260916C0270916D024AE050E088E07D
:104E900095E00E94BE336DEF71E088E095E00E94DE
:104EA000E23260916A0270916B024AE050E088E061
:104EB00095E00E94BE338AE790E00E949D039093A4
:104EC0006D0280936C028D589340419750F083E9B6
:104ED00093E090936D0280936C0210926B0210929B
:104EE0006A028CE790E00E949D0390936B0280938E
:104EF0006A02089720F010926B0210926A028EE705
:104F000090E00E949D038093130390931403809379
:104F10000B0390930C03282F2295207F10920D03F2
:104F200020930E030E94BD118091130390911403EE
:104F3000909312038093110383E00E94962F84E0E4
:104F40000E944E30019709F03AC180ED97E00E942F
:104F5000B40366E072E088E095E00E94013388E0E7
:104F600095E00E94773018161906CCF788E095E096
:104F70000E9490308093C4028B3109F41EC1982F97
:104F80009F7D9D34A9F460ED77E080E090E00E9481
:104F9000282F0E94940861E087E00E94183060ED9D
:104FA00077E080E090E00E94282F60E087E016C064
:104FB0009434B9F460ED77E080E090E00E94282F0F
:104FC0000E94940861E088E00E94183060ED77E06C
:104FD00080E090E00E94282F60E088E00E94183076
:104FE000ECC0973441F520E043E06BE0CE01019640
:104FF0000E94F12D40E855E260E070E0CE0101969C
:105000000E94212E60ED77E080E090E00E94282F42
:10501000CE0101960E94B82C18161906CCF7CE01C5
:1050200001960E942B2C8093C402682F88E095E0A3
:105030000E94F530EDCF803329F4809113039091D5
:10504000140304C0953439F48FEF9FEF90930A0353
:105050008093090309C0913409F081CF10920A03AB
:10506000109209038FE090E0909308038093070368
:105070008091090390910A0390930603809305039E
:105080008091050390910603209107033091080356
:10509000281739070CF491C09093120380931103E1
:1050A00000E010E0109316030093150360911103C4
:1050B000709112034AE050E088E095E00E94B63318
:1050C00062E771E088E095E00E94E23260911503AA
:1050D000709116034AE050E088E095E00E94EA33C0
:1050E00062E771E088E095E00E94E232809111036E
:1050F000F82EF29490EFF922E12C60911503709153
:1051000016036E0D7F1D70931E0360931D034AE00E
:1051100050E088E095E00E94EA3362E771E088E0C1
:1051200095E00E94E23280911503909116030E944F
:10513000AD119093200380931F0361E070E080E045
:1051400090E00E94282FD0901F038D2D9091200376
:1051500097FF02C081509F4F4AE050E0692F88E0DE
:1051600095E00E94E33362E771E088E095E00E94F9
:10517000E2324AE050E06D2D88E095E00E94E33392
:1051800062E771E088E095E00E94E23260911F03DF
:10519000709120034AE050E088E095E00E94BE3321
:1051A0000E5F1F4F011580E1180709F07BCF80913A
:1051B00005039091060301965FCF0E94D40780ED0E
:1051C00097E00E94B40340E855E260E070E080EDB3
:1051D00093E00E94212E68EE73E080E090E00E9450
:1051E000282F8FEF9FEF0E94BD118091CA039091ED
:1051F000CB0390937302809372028091C8039091C5
:10520000C90390937102809370020E9430168C0142
:1052100068EE73E080E090E00E94282F09301105CD
:1052200079F480ED93E00E94D02C0E9473268FEFDA
:105230009FEF90931203809311030E941A1603C0EC
:1052400010161106C4F48FEF9FEF90931203809312
:10525000110380917202909173029093CB0380931B
:10526000CA0380917002909171029093C903809358
:10527000C8030E941A166F960FB6F894DEBF0FBED1
:10528000CDBFDF91CF911F910F91FF90EF90DF90F5
:10529000089580912B0490E020912C04821B9109A9
:1052A000089520912C0480912B04281750F4E22FAC
:1052B000F0E0E35DFB4F808190E02F5F20932C04B2
:1052C00008958FEF9FEF0895E0912C0480912B04B7
:1052D000E81730F4F0E0E35DFB4F808190E0089543
:1052E0008FEF9FEF08950895CF92DF92EF92FF9294
:1052F0000F931F93CF93DF937C01CB018A01209101
:105300000704222389F0EB016B01C40ED51ECC15D6
:10531000DD0569F06991D701ED91FC910190F08173
:10532000E02DC7010995F3CF642F0E94D52AC8014B
:10533000DF91CF911F910F91FF90EF90DF90CF9071
:105340000895CF93DF931F92CDB7DEB76983209185
:1053500007042223D1F020910804203240F021E0FC
:1053600030E0FC013383228380E090E015C080911F
:105370000904E82FF0E0E65FFB4F998190838F5F8F
:10538000809309048093080405C061E0CE01019672
:105390000E94D52A81E090E00F90DF91CF9108958F
:1053A000FC011382128248EE53E060E070E0448317
:1053B0005583668377838FE192E09183808308959C
:1053C00010922C0410922B041092090410920804DD
:1053D0000C94202A862F413208F040E26DE274E0FE
:1053E0000E943E2A10922C0480932B04089521E001
:1053F0000C94EA2981E08093070460932A041092B8
:1054000009041092080408950C94FA290F93062FAA
:1054100021E0409108046AE074E080912A040E942F
:10542000822A1092090410920804109207040F9126
:10543000089561E00C94062A8BEF93E00C94D02938
:105440001092BA0481E08093B8041092B70461E02E
:1054500082E10E94183061E083E10E941830E9EB9C
:10546000F0E080818E7F808380818D7F808388E4DF
:105470008093B80085E48093BC000895413208F021
:105480003FC09091BA049111FCCF91E09093BA047F
:105490002093B8042FEF20934D0410929204240F10
:1054A000209391049093B9049091B904880F892BAB
:1054B0008093B9048091B704813041F41092B7040D
:1054C0008091B9048093BB0085EC01C085EE809388
:1054D000BC008091BA048130E1F38091920484177A
:1054E00010F44091920423E934E0FB01D9018A2FA2
:1054F000821B841718F48D918193F9CF842F08951E
:1055000080E008950F93413208F046C09091BA04AC
:105510009111FCCF92E09093BA040093B8049FEFEE
:1055200090934D041092920440939104FB0163E91F
:1055300074E0DB019A2F961B941718F491919D93B8
:10554000F9CF1092B9049091B904880F892B8093F8
:10555000B9048091B704813041F41092B70480916E
:10556000B9048093BB0085EC01C085EE8093BC003C
:10557000222321F08091BA048230E1F380914D041E
:105580008F3F61F080914D04803251F080914D0445
:10559000803341F483E007C081E005C080E003C0B0
:1055A00082E001C084E00F910895613298F4209167
:1055B000BA04243089F460936F04FC0181E794E01D
:1055C000DC012A2F281B261718F421912D93F9CFDF
:1055D00080E0089581E0089582E0089585ED80934C
:1055E000BC008091BC0084FDFCCF1092BA040895E9
:1055F00085EC8093BC001092BA0408951F920F921C
:105600000FB60F9211242F933F934F935F936F9395
:105610007F938F939F93AF93BF93EF93FF9380916B
:10562000B900887F803609F49CC068F5883209F497
:105630005BC090F4803109F454C038F4882309F435
:10564000F5C0883009F44DC0F5C0883109F44CC06C
:10565000803209F45DC0EEC0803409F468C048F4BB
:10566000803309F455C0883309F0E4C080934D04B9
:10567000A8C0803509F44FC0883509F45DC088346E
:1056800009F0D8C0D5C0883909F4C6C0A8F4883755
:1056900009F467C038F4883609F463C0803709F428
:1056A00060C0C8C0883809F4B7C0803909F45FC049
:1056B000803809F0BFC05BC0803B09F485C038F476
:1056C000803A09F466C0883A09F47EC0B3C0803CD1
:1056D00009F4A6C0883C09F4A3C0883B09F489C03A
:1056E000A9C08091B90410C0909192048091910456
:1056F000981770F5E091920481E08E0F80939204E8
:10570000F0E0ED56FB4F80818093BB0085EC85C0B7
:1057100080934D048DC0E091920481E08E0F8093C0
:1057200092048091BB00F0E0ED56FB4F8083909196
:105730009204809191046DC0E091920481E08E0FFB
:10574000809392048091BB00F0E0ED56FB4F808384
:105750008091B80481116CC081E08093B70484EA21
:1057600060C083E08093BA0410924E04CFCF809142
:105770004E04803208F050C0E0914E0481E08E0F5C
:1057800080934E048091BB00F0E0E15BFB4F80838F
:10579000BDCF80914E04803230F4E0914E04F0E0B1
:1057A000E15BFB4F10820E94EE2A60914E0470E094
:1057B000E091B304F091B4048FE494E00995109261
:1057C0004E040E94F82A36C084E08093BA041092F6
:1057D000700410926F04E091B504F091B60409953D
:1057E00080916F04811105C081E080936F04109255
:1057F0007104E091700481E08E0F80937004F0E0FA
:10580000EF58FB4F80818093BB0090917004809192
:105810006F04981708F47ACF85E88093BC000AC01B
:1058200085EC8093BC001092BA0404C010924D0421
:105830000E94EE2AFF91EF91BF91AF919F918F91BE
:105840007F916F915F914F913F912F910F900FBE7C
:105850000F901F9018952091FD043091FE04281799
:105860003907B9F49091BB048091BC04981789F072
:10587000E091BB04F0E0E354FB4F80812091BB0436
:1058800030E02F5F3F4F2F7333272093BB0490E00E
:1058900008958FEF9FEF08951F93CF93DF93DC015F
:1058A0005C968D919C915D97009749F481E090E022
:1058B00013969C938E93129780E090E03BC0519694
:1058C000ED91FC91529750962C915097322F309534
:1058D0001FB75E964C915E9741FB772770F941FDAB
:1058E0006095F8944081772311F0422B01C0432347
:1058F0004083EC012197F1F748E0508160FF02C03E
:10590000522B01C053235083EC012197F1F7669588
:10591000415099F78081772311F0832301C0822BB6
:1059200080831FBF5C968D919C915D970197F1F7E5
:1059300081E090E0DF91CF911F9108952091FD04C7
:105940003091FE042817390781F49091BB048091AF
:10595000BC04981751F0E091BB04F0E0E354FB4F16
:105960008081992787FD909508958FEF9FEF089587
:105970002091FD043091FE042817390771F48091BD
:10598000BC042091BB0490E0805C9F4F821B910976
:1059900060E470E00E943C39089580E090E0089552
:1059A0002091FD043091FE042817390739F48FB790
:1059B000F8941092BC041092BB048FBF0895E0913C
:1059C000FD04F091FE04E817F90769F4A389B4898E
:1059D0009C918589809589238C931092FE04109266
:1059E000FD0481E0089580E00895CF93DF93EC01FA
:1059F0008A8D9B8D892BF1F08091FD049091FE049E
:105A00008C179D07B9F0009711F00E94DF2C8E8D46
:105A10008E7F8E8F1092BC041092BB04D093FE0434
:105A2000C093FD04EB89FC8980819D89892B80834B
:105A300081E001C080E0DF91CF9108951F920F9225
:105A40000FB60F9211242F933F934F935F936F9351
:105A50007F938F939F93AF93BF93EF93FF93E091C7
:105A6000FD04F091FE04309709F451C0868DA6859F
:105A7000B785958581FF04C08C91892329F447C09F
:105A80008C91892309F043C0A389B4899C918589AD
:105A9000809589238C93868997890197F1F7208DCA
:105AA000318DA685B785758558E040E0C90101971D
:105AB000F1F7842F90E095958795482F6C91672397
:105AC00009F04068515091F7868D81FD4095809195
:105AD000BC0490E001968F7399272091BB0428178E
